:100000005EC000008BC30000B0C300007FC00000D2
:100010007DC000007BC0000079C0000023C3000049
:1000200075C0000073C0000071C000000C94A80BE4
:100030006DC000006BC0000069C0000067C0000018
:10004000C6C3000063C0000042C1000072C10000CE
:100050005DC000005BC0000059C0000057C0000038
:1000600055C0000053C0000002000000080002015B
:10007000000003040700000000000000000102046B
:10008000081020408001020408102001020408101A
:100090002004040404040404040202020202020311
:1000A000030303030300000000250028002B0000C9
:1000B000000000240027002A0000C701410211248B
:1000C0001FBECFEFD8E0DEBFCDBF11E0A0E0B1E0B2
:1000D000E2EEF8E102C005900D92AE33B107D9F718
:1000E00028E0AEE3B1E001C01D92A738B207E1F706
:1000F00010E0CEEBD0E004C02297FE010E946B0C12
:10010000CA3BD107C9F759D30C946F0C79CFFC01C6
:10011000818D228D90E0805C9F4F821B91098F73AF
:1001200099270895FC01918D828D981731F0828D69
:10013000E80FF11D858D90E008958FEF9FEF0895F2
:10014000FC01918D828D981761F0828DDF01A80FDF
:10015000B11D5D968C91928D9F5F9F73928F90E001
:1001600008958FEF9FEF08958EEB91E0892B41F07A
:1001700080E090E0892B21F001D181110C940000E6
:100180000895FC01848DDF01A80FB11DA35ABF4F54
:100190002C91848D90E001968F739927848FA68986
:1001A000B7892C93A089B1898C9180648C93938DAD
:1001B000848D981306C00288F389E02D80818F7D9D
:1001C00080830895CF93DF93EC01888D8823C1F05D
:1001D000EA89FB89808185FD05C0A889B9898C9150
:1001E00086FD0EC00FB607FCF5CF808185FFF2CFEC
:1001F000A889B9898C9185FFEDCFCE01C2DFE8CF08
:10020000DF91CF910895CF92DF92FF920F931F93CA
:10021000CF93DF931F92CDB7DEB76C0181E0D6019B
:1002200058968C9358975B969C915B975C968C91B3
:100230005C97981307C05096ED91FC91519780817F
:1002400085FD2DC0F601038D10E00F5F1F4F0F736A
:100250001127F02EF601848DF81210C00FB607FC9E
:10026000F9CFD6015096ED91FC915197808185FF91
:10027000F1CFC601698385DF6981ECCF838DE80FFB
:10028000F11DE35AFF4F6083D6015B960C935B9799
:100290005296ED91FC915397808180620CC0D601FB
:1002A0005696ED91FC91579760835096ED91FC9195
:1002B000519780818064808381E090E00F90DF918E
:1002C000CF911F910F91FF90DF90CF9008951F92D3
:1002D0000F920FB60F9211242F938F939F93EF934A
:1002E000FF93E0914E01F0914F018081E091540124
:1002F000F091550182FD12C09081809157018F5F6E
:100300008F7320915801821751F0E0915701F0E06E
:10031000E25CFE4F958F8093570101C08081FF9171
:10032000EF919F918F912F910F900FBE0F901F9083
:1003300018951F920F920FB60F9211242F933F938F
:100340004F935F936F937F938F939F93AF93BF93DD
:10035000EF93FF938EE391E014DFFF91EF91BF9154
:10036000AF919F918F917F916F915F914F913F914D
:100370002F910F900FBE0F901F9018958EE391E074
:10038000C6DE21E0892B09F420E0822F0895109227
:1003900041011092400188EE93E0A0E0B0E080932C
:1003A000420190934301A0934401B093450185E13C
:1003B00091E090933F0180933E0185EC90E0909313
:1003C0004B0180934A0184EC90E090934D0180931F
:1003D0004C0180EC90E090934F0180934E0181ECB2
:1003E00090E0909351018093500182EC90E09093C3
:1003F00053018093520186EC90E0909355018093D5
:100400005401109257011092580110925901109204
:100410005A010895AF92BF92CF92DF92EF92FF926E
:100420000F931F93CF93DF936C017B01C0E0D0E06B
:1004300000E010E0F601EC0FFD1F4AE050E06281A1
:10044000C701D7D05C016EE2C70168D08A0D9B1D41
:10045000080F191F2196C330D10561F74AE050E01B
:10046000F6016581C701C5D0800F911FDF91CF9143
:100470001F910F91FF90EF90DF90CF90BF90AF90C2
:10048000089585E291E09093DC018093DB01109266
:10049000DD011092DE011092DF011092E00108955B
:1004A000CF92DF92EF92FF920F931F93CF93DF9340
:1004B0007C016A01EB0100E010E00C151D0571F0F4
:1004C0006991D701ED91FC910190F081E02DC70178
:1004D0000995892B19F00F5F1F4FEFCFC801DF91EE
:1004E000CF911F910F91FF90EF90DF90CF900895E3
:1004F0006115710581F0DB010D900020E9F7AD0178
:1005000041505109461B570BDC01ED91FC910280D3
:10051000F381E02D099480E090E00895DC01ED91F5
:10052000FC910190F081E02D09948F929F92AF92FF
:10053000BF92CF92DF92EF92FF920F931F93CF93D0
:10054000DF93CDB7DEB7A1970FB6F894DEBF0FBE2D
:10055000CDBF7C01C42EE52FCB01D22E19A221E004
:100560002D1510F02AE0D22E8E010F5D1F4F8D2C1D
:10057000912CA12CB12C6C2D7E2FA50194010E94F1
:10058000470C8C2DD29E80191124015011098A30FC
:1005900010F4805D01C0895CF8018083211531056C
:1005A0004105510521F0C22EE32FCA01E4CFB80165
:1005B000C7019EDFA1960FB6F894DEBF0FBECDBF78
:1005C000DF91CF911F910F91FF90EF90DF90CF902F
:1005D000BF90AF909F908F9008952115310541F401
:1005E000DC01ED91FC910190F081E02D642F0994E4
:1005F0009CCF9A01462F50E060E070E0EECF813052
:1006000039F018F0823051F0089510926E0008957C
:1006100080916F008D7F80936F00089580917000AE
:100620008D7F8093700081E08093B0008091B10055
:10063000887F84608093B1001092B3000895CF93B7
:10064000C82F80910A018C1307C0E8E6F0E084917E
:100650009FEF90930A0101C08FEFD1DF60E08C2FF4
:10066000CF91A7C11F920F920FB60F9211242F9313
:100670003F934F935F936F937F938F939F93AF932A
:10068000BF93EF93FF938091E4019091E501A091D6
:10069000E601B091E701892B8A2B8B2B51F19091C8
:1006A000E101E091E201F091E301808189278083FB
:1006B0008091E4019091E501A091E601B091E701FC
:1006C000181619061A061B06BCF48091E4019091D5
:1006D000E501A091E601B091E7010197A109B109F7
:1006E0008093E4019093E501A093E601B093E701C4
:1006F00003C080910A01A3DFFF91EF91BF91AF91F9
:100700009F918F917F916F915F914F913F912F9129
:100710000F900FBE0F901F90189508951F920F9283
:100720000FB60F9211242F933F934F935F936F93C4
:100730007F938F939F93AF93BF93EF93FF93E0913A
:100740000B01F0910C010995FF91EF91BF91AF91D1
:100750009F918F917F916F915F914F913F912F91D9
:100760000F900FBE0F901F9018951F920F920FB60B
:100770000F9211242F933F934F935F936F937F9327
:100780008F939F93AF93BF93EF93FF93E0910D01EE
:10079000F0910E010995FF91EF91BF91AF919F915B
:1007A0008F917F916F915F914F913F912F910F901A
:1007B0000FBE0F901F90189508955ED0FDDFC7D132
:1007C000C4EBD0E0D0D12097E9F3CEDCFBCF1F9271
:1007D0000F920FB60F9211242F933F938F939F93F5
:1007E000AF93BF938091E9019091EA01A091EB0151
:1007F000B091EC013091E80123E0230F2D3720F474
:100800000196A11DB11D05C026E8230F0296A11D6A
:10081000B11D2093E8018093E9019093EA01A09330
:10082000EB01B093EC018091ED019091EE01A0916C
:10083000EF01B091F0010196A11DB11D8093ED0172
:100840009093EE01A093EF01B093F001BF91AF91AF
:100850009F918F913F912F910F900FBE0F901F90FE
:1008600018958230910538F0880F991F880F991FCD
:1008700005970197F1F70895789484B5826084BD57
:1008800084B5816084BD85B5826085BD85B5816094
:1008900085BDEEE6F0E0808181608083E1E8F0E0F4
:1008A0001082808182608083808181608083E0E823
:1008B000F0E0808181608083E1EBF0E08081846002
:1008C0008083E0EBF0E0808181608083EAE7F0E004
:1008D0008081846080838081826080838081816068
:1008E00080838081806880831092C1000895833066
:1008F00081F028F4813099F08230A1F0089587309A
:10090000A9F08830B9F08430D1F4809180008F7DD7
:1009100003C0809180008F7780938000089584B514
:100920008F7702C084B58F7D84BD08958091B0001B
:100930008F7703C08091B0008F7D8093B0000895C1
:10094000CF93DF9390E0FC01E358FF4F2491FC012B
:10095000EF56FF4F8491882349F190E0880F991F4B
:10096000FC01E155FF4FA591B4918B559F4FFC01C0
:10097000C591D4919FB7611108C0F8948C912095CE
:1009800082238C93888182230AC0623051F4F894C8
:100990008C91322F309583238C938881822B88838E
:1009A00004C0F8948C91822B8C939FBFDF91CF91E0
:1009B00008950F931F93CF93DF931F92CDB7DEB7A8
:1009C000282F30E0F901E759FF4F8491F901E358EE
:1009D000FF4F1491F901EF56FF4F04910023C1F02E
:1009E000882319F0698383DF6981E02FF0E0EE0F3F
:1009F000FF1FEB55FF4FA591B4919FB7F8948C91D1
:100A0000611103C01095812301C0812B8C939FBF7E
:100A10000F90DF91CF911F910F9108950F931F9326
:100A2000CF93DF938C01C0E0D0E0C017D1072CF446
:100A300088EE93E016DF2196F8CFDF91CF911F91DA
:100A40000F910895CF93DF93CFE0D0E061E086E08F
:100A5000B0DF82E390E0E2DF60E086E0AADF82E3DD
:100A600090E0DCDF219791F7DF91CF910895CF934C
:100A7000DF93C9E1D0E061E087E09BDF82E390E0B3
:100A8000CDDF60E087E095DF82E390E0C7DF21976C
:100A900091F7DF91CF910895CF93DF93C1E1D0E03B
:100AA00061E088E086DF82E390E0B8DF60E088E024
:100AB00080DF82E390E0B2DF219791F7DF91CF9161
:100AC0000895CF93DF93C7E0D0E061E089E071DF64
:100AD00082E390E0A3DF60E089E06BDF82E390E0F7
:100AE0009DDF219791F7DF91CF910895CF93DF9309
:100AF00000D000D0CDB7DEB7FBD169837A838B837A
:100B00009C83A0DFB4DFDDDF48E853E160E070E004
:100B1000CE01019630D396DFBFDF48E853E160E0B5
:100B200070E0CE01019627D38DDFA1DF48E853E1C5
:100B300060E070E0CE0101961ED384DFADDF48E8AF
:100B400053E160E070E0CE01019615D3D5CF61E0AE
:100B500086E0F6DE61E087E0F3DE61E088E0F0DE6B
:100B600061E089E0EDCEAF92BF92CF92DF92EF923B
:100B7000FF920F93A12CB12CC12CD12CE12CF12C84
:100B800001E020E030E048EC50E067E271E086E709
:100B900095E075D00F91FF90EF90DF90CF90BF90D0
:100BA000AF9060C1E0911A02F0911B028081811127
:100BB00004C08FEF9FEFDC010EC0E0911A02F091AC
:100BC0001B020780F085E02D0084F185E02D8281F5
:100BD0009381A481B5818093F2019093F301A09356
:100BE000F401B093F5010895CF92DF92EF92FF9256
:100BF0006B017C01E091A002F091A10262837383FA
:100C0000848395838091FC019091FD01A091FE0168
:100C1000B091FF016091A0027091A102C816D9069F
:100C2000EA06FB0658F480911802909119026E5F53
:100C30007F4FFF90EF90DF90CF90C2C580911A0256
:100C400090911B026E5F7F4FBBD58091F201909116
:100C5000F301A091F401B091F501C816D906EA0696
:100C6000FB0640F4C092F201D092F301E092F4014D
:100C7000F092F501FF90EF90DF90CF9008955F9292
:100C80006F927F928F929F92AF92BF92CF92DF929C
:100C9000EF92FF920F931F93CF93DF934C01162F88
:100CA000572E5A013901C114D10431F4CA013DD380
:100CB0006C01009709F4C5C08AE290E036D3EC01DC
:100CC000009761F0DC8ECB8E21E0A21AB108AC0C4B
:100CD000BD1CE12FF52D80E090E007C0C601B5D323
:100CE000B0C001968830910561F0BF0141919E012D
:100CF000280F391FD9015D964C93DB012C912111EE
:100D0000F0CF1CA2102F0A3008F019E01A8F6E01E4
:100D1000B2E0CB0ED11CC6012ED5CE010E962BD53E
:100D2000DB87CA878AE090E0A0E0B0E0811B9109F0
:100D3000A109B1098E879F87A88BB98BDF8BCE8BDA
:100D40001DA21EA21FA218A619A6A301B401C501C7
:100D5000A6D399838883E114F10419F0F701D183B4
:100D6000C0830FB6F8940F92809100028F5F80933A
:100D700000028091A0029091A102892B79F5D09375
:100D8000A102C093A002809100028130B1F582E3FC
:100D9000E82E82E0F82EC701DDD4FBE0EF0EF11C57
:100DA00020EAE21622E0F206B1F787E292E0D2D41E
:100DB0008CE192E0CFD48DE092E0CCD482E092E05E
:100DC000C9D487E292E090931B0280931A028CE1CF
:100DD00092E090931902809318020FC08091FA015B
:100DE00081110BC0E091A002F091A102828D081741
:100DF00020F0D093A102C093A0028091F6018F5FF2
:100E00008093F6018A8D9091FB01981710F48093DE
:100E1000FB01ABE08A9FC0011124B6018E5C9D4F9F
:100E2000AED40F900FBE8091FA01882341F0E0917B
:100E3000A002F091A102828D801708F4D7D381E03F
:100E400001C08FEFDF91CF911F910F91FF90EF9035
:100E5000DF90CF90BF90AF909F908F907F906F90DA
:100E60005F900895AF92BF92CF92DF92EF92FF9280
:100E70000F93A12CB12CC12CD12CE12CF12C00E032
:100E800020E030E045E550E068E371E087E299E07A
:100E9000F6DE8130F9F4F8948FEF9FEFDC01809358
:100EA000F2019093F301A093F401B093F50181E076
:100EB0008093FA011092FC011092FD011092FE0144
:100EC0001092FF010F91FF90EF90DF90CF90BF90B5
:100ED000AF9051C30F91FF90EF90DF90CF90BF90F4
:100EE000AF9008958091F1018F5F8093F101089593
:100EF0000FB6F8940F926091FC017091FD01809102
:100F0000FE019091FF010F900FBE0895AF92BF9226
:100F1000CF92DF92EF92FF920F931F93CF93DF93C5
:100F20008091F1018111A4C08091FC019091FD019B
:100F3000A091FE01B091FF010196A11DB11D80930A
:100F4000FC019093FD01A093FE01B093FF01C090BE
:100F5000FC01D090FD01E090FE01F090FF01C11472
:100F6000D104E104F104B1F480911A0290911B02C2
:100F7000209118023091190230931B0220931A021B
:100F800090931902809318028091F7018F5F8093EC
:100F9000F70108DE8091F2019091F301A091F40134
:100FA000B091F501B12CC816D906EA06FB0608F483
:100FB0004EC09BE0A92EE0911A02F0911B028081A5
:100FC000811104C04FEF5FEFBA0112C0E0911A0225
:100FD000F0911B020780F085E02DC085D1854A8104
:100FE0005B816C817D81C416D506E606F70648F460
:100FF0004093F2015093F3016093F4017093F50173
:1010000026C08E010E5F1F4FC8011ED4888D998D9A
:10101000892B19F0CE010E9617D42A8D8091FB01F1
:10102000821710F42093FB01A29EC0011124B80185
:101030008E5C9D4FA4D3E091A002F091A1029A8D05
:10104000828D981708F4B7CFBB24B394B4CFE09146
:10105000A002F091A102E28D8BE0E89FF001112443
:10106000EE5CFD4F8081823048F0BB24B39406C013
:101070008091F9018F5F8093F901B12C8091F80183
:10108000882311F0BB24B3948B2DDF91CF911F9156
:101090000F91FF90EF90DF90CF90BF90AF900895A9
:1010A000EF92FF920F931F93CF93DF930FB6F894B5
:1010B0000F928091F10181508093F1018091F101B3
:1010C000882311F080E04EC0809100028823D1F384
:1010D0002BE0F22EEE24E39480910D02882339F167
:1010E000E0911402F0911502C085D185CE010E96D3
:1010F000ABD38E010E5F1F4FC801A6D38A8D90918E
:10110000FB01981710F48093FB01F89EC001112495
:10111000B8018E5C9D4F33D3E091A002F091A10203
:101120009A8D828D9817C0F2E092F801D5CF809108
:10113000F901811108C08091F801813009F0C2CF16
:1011400055D281E00FC0C1E08091F901882399F365
:10115000DDDE8111C093F8018091F9018150809307
:10116000F901F2CF0F900FBEDF91CF911F910F9138
:10117000FF90EF900895AF92BF92CF92DF92EF92DF
:10118000FF920F931F93CF93DF9300D000D0CDB782
:10119000DEB75C0149835A836B837C83A3DEC090F6
:1011A000FC01D090FD01E090FE01F090FF01F501FF
:1011B000008111812281338149815A816B817C8137
:1011C000400F511F621F731FC016D106E206F306BF
:1011D00038F4401751076207730768F481E006C0CE
:1011E00081E0401751076207730730F0C416D50637
:1011F000E606F70608F080E0F5014083518362833C
:101200007383882389F08091A0029091A1020296B5
:1012100049835A836B837C8317D349815A816B81BD
:101220007C81CB01BA01E0DC3BDF811101C0DED162
:101230000F900F900F900F90DF91CF911F910F9112
:10124000FF90EF90DF90CF90BF90AF900895809186
:101250000102882321F146DEC091020221DFCC2366
:10126000B1F30FB6F8940F92E0910902F0910A02DF
:10127000C085D185CE010296E7D2809100028150CF
:1012800080930002809101028150809301020F90AF
:101290000FBE8B8D9C8DD9D0CE01D7D0D8CF809169
:1012A00032028230A0F2A2D1D2CF8091F101882304
:1012B00021F081E08093F80108951092F8019BE0FD
:1012C000E091FB019E9FF0011124EE5CFD4F8081B7
:1012D000811106C08091FB0181508093FB01F0CF0A
:1012E000E091FB018BE0E89FF0011124EE5CFD4FE3
:1012F000A181B28114960D90BC91A02DB283A183DF
:10130000CF010396A817B90731F414968D919C91DB
:101310001597928381830180F281E02D80859185EC
:101320009093A1028093A00208950F931F93CF93EF
:10133000DF93EC01D7DD8091A202811121C08CEAFC
:1013400092E09093A8028093A7021092AA021092B2
:10135000A9028BED95E09093A6028093A5021092CE
:10136000A4021092A3029093AF028093AE0283EA8C
:1013700092E09093AD028093AC0281E08093A20250
:10138000209709F02496CE0101978A3D954008F0F8
:1013900053C0E091A702F091A802A7EAB2E08281CF
:1013A00093818C179D0728F022E0E33AF20749F475
:1013B00043C02081318121153105B1F3DF01F901ED
:1013C000EECF0D911C9111970C5F1F4F2081318141
:1013D0002D933C938C1B9D0B8930910500F1DF010F
:1013E000AC0FBD1F13969C938E931297D383C28329
:1013F00012962D913C91139767EA72E0EB01888178
:101400009981EC014A815B814217530710F4BC01BA
:10141000F5CF11969C938E93EB01B983A8838091AD
:101420000F019091100122813381821B930B9093C5
:10143000100180930F0102C000E010E031DEC8010E
:10144000DF91CF911F910F910895CF93DF93009774
:1014500019F1EC01249746DD2A813B81E7EAF2E0AD
:10146000A081B18112968D919C9113978217930759
:1014700010F4FD01F5CFB983A883D183C083809197
:101480000F0190911001820F931F90931001809390
:101490000F01DF91CF9104CEDF91CF91089531E11B
:1014A000FC013083319722E220833197A3E3A083AC
:1014B000319760833197708331971082319760E85C
:1014C000608331971082319762E06083319763E0E7
:1014D0006083319764E06083319765E06083319782
:1014E00066E06083319767E06083319768E06083EE
:1014F000319769E06083319760E160833197308391
:10150000319732E13083319733E13083319734E1E1
:101510003083319735E13083319736E1308331972D
:1015200037E13083319738E13083319739E13083C7
:10153000319730E23083319731E230833197208325
:10154000319723E22083319740833197508331973D
:1015500026E22083319727E22083319728E22083F7
:10156000319729E22083319720E32083319721E3CB
:1015700020838697089589E08093890083EC809387
:1015800088008BE080938100EFE6F0E0808182604C
:101590008083A091A002B091A102CD91CDBFDD9139
:1015A000DEBFFF91EF91DF91CF91BF91AF919F91FE
:1015B0008F917F916F915F914F913F912F911F91EB
:1015C0000F91FF90EF90DF90CF90BF90AF909F90E2
:1015D0008F907F906F905F904F903F902F901F90D3
:1015E0000F900FBE0F90089581E008950F920FB6EF
:1015F000F8940F921F9211242F923F924F925F9274
:101600006F927F928F929F92AF92BF92CF92DF9212
:10161000EF92FF920F931F932F933F934F935F93FC
:101620006F937F938F939F93AF93BF93CF93DF93EA
:10163000EF93FF93A091A002B091A1020DB60D927D
:101640000EB60D9232DEA091A002B091A102CD9112
:10165000CDBFDD91DEBFFF91EF91DF91CF91BF91C3
:10166000AF919F918F917F916F915F914F913F913A
:101670002F911F910F91FF90EF90DF90CF90BF902F
:10168000AF909F908F907F906F905F904F903F9022
:101690002F901F900F900FBE0F9008950F920FB6CE
:1016A000F8940F921F9211242F923F924F925F92C3
:1016B0006F927F928F929F92AF92BF92CF92DF9262
:1016C000EF92FF920F931F932F933F934F935F934C
:1016D0006F937F938F939F93AF93BF93CF93DF933A
:1016E000EF93FF93A091A002B091A1020DB60D92CD
:1016F0000EB60D920BDC8111D8DDA091A002B09145
:10170000A102CD91CDBFDD91DEBFFF91EF91DF91C1
:10171000CF91BF91AF919F918F917F916F915F9189
:101720004F913F912F911F910F91FF90EF90DF907C
:10173000CF90BF90AF909F908F907F906F905F9071
:101740004F903F902F901F900F900FBE0F900895D5
:10175000A5DF1895FC010396928381834FEF5FEF1D
:10176000BA01438354836583768390878783928706
:10177000818710820895FC01138612860895CF9305
:10178000DF939C01FB01DC011196CD91DC91129756
:10179000D583C4838E819F81978386838E819F8129
:1017A000DC0115967C936E9314977F836E83338749
:1017B0002287F90180818F5F8083DF91CF91089527
:1017C000EF92FF920F931F93CF93DF937C01FB0166
:1017D00040815181628173814F3F8FEF58076807C5
:1017E000780721F4E701A985BA8512C0D7011396BD
:1017F00014968D919C911597EC01088119812A818D
:101800003B81401751076207730710F0DC01F0CFEE
:1018100014968D919C91159795838483EC01FF8399
:10182000EE83B783A6831596FC93EE931497F38605
:10183000E286F70180818F5F8083DF91CF911F91D6
:101840000F91FF90EF900895CF93DF93FC01A28555
:10185000B3858481958126813781EC013F832E8376
:10186000C681D7819D838C8311968D919C9112970F
:101870008E179F0721F41296DC93CE93119713864F
:1018800012868C9181508C93DF91CF910895A1E2C3
:101890001A2EAA1BBB1BFD010DC0AA1FBB1FEE1FEA
:1018A000FF1FA217B307E407F50720F0A21BB30B35
:1018B000E40BF50B661F771F881F991F1A9469F7B1
:1018C00060957095809590959B01AC01BD01CF010D
:1018D0000895EE0FFF1F0590F491E02D0994F89400
:0218E000FFCF38
:1018E20000008708800001000000FF8D038D03DBEC
:1018F2000500000000030150028700A0009200E2F0
:1019020000000000000A026379636C69635F657816
:0E191200656375746976650049444C450000B4
:00000001FF
