:100000005EC000008BC30000B0C300007FC00000D2
:100010007DC000007BC0000079C0000023C3000049
:1000200075C0000073C0000071C000000C94C00FC8
:100030006DC000006BC0000069C0000067C0000018
:10004000C6C3000063C0000042C1000072C10000CE
:100050005DC000005BC0000059C0000057C0000038
:1000600055C0000053C0000002000000080002015B
:10007000000003040700000000000000000102046B
:10008000081020408001020408102001020408101A
:100090002004040404040404040202020202020311
:1000A000030303030300000000250028002B0000C9
:1000B000000000240027002A0000C701410211248B
:1000C0001FBECFEFD8E0DEBFCDBF11E0A0E0B1E0B2
:1000D000E4E2F1E202C005900D92AE33B107D9F728
:1000E00028E0AEE3B1E001C01D92A938B207E1F704
:1000F00010E0CEEBD0E004C02297FE010E948310F6
:10010000CA3BD107C9F759D30C94901079CFFC01A1
:10011000818D228D90E0805C9F4F821B91098F73AF
:1001200099270895FC01918D828D981731F0828D69
:10013000E80FF11D858D90E008958FEF9FEF0895F2
:10014000FC01918D828D981761F0828DDF01A80FDF
:10015000B11D5D968C91928D9F5F9F73928F90E001
:1001600008958FEF9FEF08958EEB91E0892B41F07A
:1001700080E090E0892B21F001D181110C940000E6
:100180000895FC01848DDF01A80FB11DA35ABF4F54
:100190002C91848D90E001968F739927848FA68986
:1001A000B7892C93A089B1898C9180648C93938DAD
:1001B000848D981306C00288F389E02D80818F7D9D
:1001C00080830895CF93DF93EC01888D8823C1F05D
:1001D000EA89FB89808185FD05C0A889B9898C9150
:1001E00086FD0EC00FB607FCF5CF808185FFF2CFEC
:1001F000A889B9898C9185FFEDCFCE01C2DFE8CF08
:10020000DF91CF910895CF92DF92FF920F931F93CA
:10021000CF93DF931F92CDB7DEB76C0181E0D6019B
:1002200058968C9358975B969C915B975C968C91B3
:100230005C97981307C05096ED91FC91519780817F
:1002400085FD2DC0F601038D10E00F5F1F4F0F736A
:100250001127F02EF601848DF81210C00FB607FC9E
:10026000F9CFD6015096ED91FC915197808185FF91
:10027000F1CFC601698385DF6981ECCF838DE80FFB
:10028000F11DE35AFF4F6083D6015B960C935B9799
:100290005296ED91FC915397808180620CC0D601FB
:1002A0005696ED91FC91579760835096ED91FC9195
:1002B000519780818064808381E090E00F90DF918E
:1002C000CF911F910F91FF90DF90CF9008951F92D3
:1002D0000F920FB60F9211242F938F939F93EF934A
:1002E000FF93E0914E01F0914F018081E091540124
:1002F000F091550182FD12C09081809157018F5F6E
:100300008F7320915801821751F0E0915701F0E06E
:10031000E25CFE4F958F8093570101C08081FF9171
:10032000EF919F918F912F910F900FBE0F901F9083
:1003300018951F920F920FB60F9211242F933F938F
:100340004F935F936F937F938F939F93AF93BF93DD
:10035000EF93FF938EE391E014DFFF91EF91BF9154
:10036000AF919F918F917F916F915F914F913F914D
:100370002F910F900FBE0F901F9018958EE391E074
:10038000C6DE21E0892B09F420E0822F0895109227
:1003900041011092400188EE93E0A0E0B0E080932C
:1003A000420190934301A0934401B093450185E13C
:1003B00091E090933F0180933E0185EC90E0909313
:1003C0004B0180934A0184EC90E090934D0180931F
:1003D0004C0180EC90E090934F0180934E0181ECB2
:1003E00090E0909351018093500182EC90E09093C3
:1003F00053018093520186EC90E0909355018093D5
:100400005401109257011092580110925901109204
:100410005A010895AF92BF92CF92DF92EF92FF926E
:100420000F931F93CF93DF936C017B01C0E0D0E06B
:1004300000E010E0F601EC0FFD1F4AE050E06281A1
:10044000C701D7D05C016EE2C70168D08A0D9B1D41
:10045000080F191F2196C330D10561F74AE050E01B
:10046000F6016581C701C5D0800F911FDF91CF9143
:100470001F910F91FF90EF90DF90CF90BF90AF90C2
:10048000089585E291E09093DC018093DB01109266
:10049000DD011092DE011092DF011092E00108955B
:1004A000CF92DF92EF92FF920F931F93CF93DF9340
:1004B0007C016A01EB0100E010E00C151D0571F0F4
:1004C0006991D701ED91FC910190F081E02DC70178
:1004D0000995892B19F00F5F1F4FEFCFC801DF91EE
:1004E000CF911F910F91FF90EF90DF90CF900895E3
:1004F0006115710581F0DB010D900020E9F7AD0178
:1005000041505109461B570BDC01ED91FC910280D3
:10051000F381E02D099480E090E00895DC01ED91F5
:10052000FC910190F081E02D09948F929F92AF92FF
:10053000BF92CF92DF92EF92FF920F931F93CF93D0
:10054000DF93CDB7DEB7A1970FB6F894DEBF0FBE2D
:10055000CDBF7C01C42EE52FCB01D22E19A221E004
:100560002D1510F02AE0D22E8E010F5D1F4F8D2C1D
:10057000912CA12CB12C6C2D7E2FA50194010E94F1
:100580005F108C2DD29E80191124015011098A30E0
:1005900010F4805D01C0895CF8018083211531056C
:1005A0004105510521F0C22EE32FCA01E4CFB80165
:1005B000C7019EDFA1960FB6F894DEBF0FBECDBF78
:1005C000DF91CF911F910F91FF90EF90DF90CF902F
:1005D000BF90AF909F908F9008952115310541F401
:1005E000DC01ED91FC910190F081E02D642F0994E4
:1005F0009CCF9A01462F50E060E070E0EECF813052
:1006000039F018F0823051F0089510926E0008957C
:1006100080916F008D7F80936F00089580917000AE
:100620008D7F8093700081E08093B0008091B10055
:10063000887F84608093B1001092B3000895CF93B7
:10064000C82F80910A018C1307C0E8E6F0E084917E
:100650009FEF90930A0101C08FEFD1DF60E08C2FF4
:10066000CF91A7C11F920F920FB60F9211242F9313
:100670003F934F935F936F937F938F939F93AF932A
:10068000BF93EF93FF938091E4019091E501A091D6
:10069000E601B091E701892B8A2B8B2B51F19091C8
:1006A000E101E091E201F091E301808189278083FB
:1006B0008091E4019091E501A091E601B091E701FC
:1006C000181619061A061B06BCF48091E4019091D5
:1006D000E501A091E601B091E7010197A109B109F7
:1006E0008093E4019093E501A093E601B093E701C4
:1006F00003C080910A01A3DFFF91EF91BF91AF91F9
:100700009F918F917F916F915F914F913F912F9129
:100710000F900FBE0F901F90189508951F920F9283
:100720000FB60F9211242F933F934F935F936F93C4
:100730007F938F939F93AF93BF93EF93FF93E0913A
:100740000B01F0910C010995FF91EF91BF91AF91D1
:100750009F918F917F916F915F914F913F912F91D9
:100760000F900FBE0F901F9018951F920F920FB60B
:100770000F9211242F933F934F935F936F937F9327
:100780008F939F93AF93BF93EF93FF93E0910D01EE
:10079000F0910E010995FF91EF91BF91AF919F915B
:1007A0008F917F916F915F914F913F912F910F901A
:1007B0000FBE0F901F90189508955ED0FDDFA7D152
:1007C000C4EBD0E0C2D12097E9F3CEDCFBCF1F927F
:1007D0000F920FB60F9211242F933F938F939F93F5
:1007E000AF93BF938091E9019091EA01A091EB0151
:1007F000B091EC013091E80123E0230F2D3720F474
:100800000196A11DB11D05C026E8230F0296A11D6A
:10081000B11D2093E8018093E9019093EA01A09330
:10082000EB01B093EC018091ED019091EE01A0916C
:10083000EF01B091F0010196A11DB11D8093ED0172
:100840009093EE01A093EF01B093F001BF91AF91AF
:100850009F918F913F912F910F900FBE0F901F90FE
:1008600018958230910538F0880F991F880F991FCD
:1008700005970197F1F70895789484B5826084BD57
:1008800084B5816084BD85B5826085BD85B5816094
:1008900085BDEEE6F0E0808181608083E1E8F0E0F4
:1008A0001082808182608083808181608083E0E823
:1008B000F0E0808181608083E1EBF0E08081846002
:1008C0008083E0EBF0E0808181608083EAE7F0E004
:1008D0008081846080838081826080838081816068
:1008E00080838081806880831092C1000895833066
:1008F00081F028F4813099F08230A1F0089587309A
:10090000A9F08830B9F08430D1F4809180008F7DD7
:1009100003C0809180008F7780938000089584B514
:100920008F7702C084B58F7D84BD08958091B0001B
:100930008F7703C08091B0008F7D8093B0000895C1
:10094000CF93DF9390E0FC01E358FF4F2491FC012B
:10095000EF56FF4F8491882349F190E0880F991F4B
:10096000FC01E155FF4FA591B4918B559F4FFC01C0
:10097000C591D4919FB7611108C0F8948C912095CE
:1009800082238C93888182230AC0623051F4F894C8
:100990008C91322F309583238C938881822B88838E
:1009A00004C0F8948C91822B8C939FBFDF91CF91E0
:1009B00008950F931F93CF93DF931F92CDB7DEB7A8
:1009C000282F30E0F901E759FF4F8491F901E358EE
:1009D000FF4F1491F901EF56FF4F04910023C1F02E
:1009E000882319F0698383DF6981E02FF0E0EE0F3F
:1009F000FF1FEB55FF4FA591B4919FB7F8948C91D1
:100A0000611103C01095812301C0812B8C939FBF7E
:100A10000F90DF91CF911F910F9108950F931F9326
:100A2000CF93DF938C01C0E0D0E0C017D1072CF446
:100A300088EE93E016DF2196F8CFDF91CF911F91DA
:100A40000F910895EC017C0186E0E80EF11C00E0B6
:100A50002FEF3FEF40E050E060E070E08091F10167
:100A60009091F2019BD2813039F561E089E0A1DFFC
:100A700000E010E088819981081719077CF461E093
:100A80008A8197DF82E390E0C9DF60E08A8191DFAD
:100A900082E390E0C3DF0C591F4FECCF00E020E071
:100AA00030E0A90160E070E08091F1019091F201E5
:100AB000DED160E089E07DDF4C815D8160E070E047
:100AC000C70100D6C4CFEC0100E010E07C0186E055
:100AD000E80EF11C88819981081719077CF461E000
:100AE0008A8167DF82E390E099DF60E08A8161DFDD
:100AF00082E390E093DF0C591F4FECCF4C815D8176
:100B000060E070E0C701DED500E010E0E3CF0F93B6
:100B100061E086E015DF61E087E012DF61E088E0F8
:100B20000FDF61E089E00CDF43E060E081E06CD141
:100B30009093F2018093F10100E020E030E0A90100
:100B400060E070E094D10F9108958F929F92AF92E0
:100B5000BF92CF92DF92EF92FF920F93CF93DF93EA
:100B6000CDB7DEB76E970FB6F894DEBF0FBECDBF20
:100B700088EB9BE09E8B8D8B86E090E0988F8F8B2F
:100B800080E1882E87E2982E9A8E898E1B8E1C8E8D
:100B90001D8E1E8EA12CB12CC12CD12CE12CF12C40
:100BA00003E09E012B5E3F4F48EC50E067E271E0AE
:100BB00082E295E017D380EA9FE09C878B8787E0ED
:100BC00090E09E878D8788E99AE3988B8F87198AB2
:100BD0001A8A1B8A1C8A02E09E01255F3F4F48EC5F
:100BE00050E06DE271E083E695E0FCD29A82898262
:100BF00088E090E09C838B8388EB98E89E838D83CC
:100C00001F82188619861A8601E09E012F5F3F4FCA
:100C100048EC50E063E371E082E295E0E3D2D7D3A1
:100C20006E960FB6F894DEBF0FBECDBFDF91CF91A9
:100C30000F91FF90EF90DF90CF90BF90AF909F907B
:100C40008F9008951F93CF93DF93EC01142F48A149
:100C500041110BC088819981892B09F040C08A819C
:100C60009B8130D71B821A823BC050E0111115C006
:100C70008C819D810E94871028A18C819D81820F8B
:100C8000911D9D838C832A813B818217930738F1C4
:100C9000888199819D838C8322C08E819F810E944F
:100CA000871028A130E03195219531098E819F81EF
:100CB000820F931F9F838E836881798186179707A0
:100CC00030F48A819B81820F931F9F838E83123021
:100CD00031F48E8D882319F08E8D81508E8F80E0B7
:100CE0009E8D9F5F9E8FDF91CF911F910895FC0194
:100CF000CB0140A14423A1F050E026813781240F8D
:100D0000351F37832683628173812617370720F0CA
:100D10002081318137832683668177810C94871007
:100D200008950F931F93CF93DF93EC010FB6F894C0
:100D30000F928C010D5E1F4F8AA118165CF48B89EF
:100D4000882341F0C801BCD581115DD68AA18150AC
:100D50008AA3F2CF8FEF8AA30F900FBE0FB6F8943D
:100D60000F928E01085F1F4F89A118165CF48885C9
:100D7000882341F0C801A4D5811145D689A18150AD
:100D800089A3F2CF8FEF89A30F900FBEDF91CF9190
:100D90001F910F910895CF93DF93EC010FB6F89454
:100DA0000F92288139818F8D78A1879FC0011124EE
:100DB000A901480F591F5B834A831E8E3D832C83F4
:100DC000871B9109820F931F9F838E838FEF89A3C7
:100DD0008AA361110BC08885882381F0CE01089613
:100DE0006FD5813059F40E940E0F08C0CE010896CD
:100DF0000E94C20FCE0143960E94C20F0F900FBEF9
:100E000081E0DF91CF910895EF92FF921F93CF93EE
:100E1000DF931F92CDB7DEB7182F662329F0869F88
:100E2000C0011124019602C080E090E0839669839E
:100E300094D67C016981009791F0611104C0FC0196
:100E40009183808306C09C012D5D3F4FFC0131835F
:100E50002083F701178F60A361E0C7019CDFC70102
:100E60000F90DF91CF911F91FF90EF900895AF9277
:100E7000BF92CF92DF92EF92FF920F93CF93DF93C7
:100E8000CDB7DEB729970FB6F894DEBF0FBECDBF42
:100E90007C016B012E833F834887598720E05C01EA
:100EA00088E0A80EB11C0FB6F8940F92F701968D4A
:100EB000878D981710F00230A9F4402FB601C701B2
:100EC000C1DEF7019389992339F0C7014396F8D41D
:100ED000813021F4A3D702C08111FCCF0F900FBE47
:100EE00081E04CC08E819F81A885B985892B8A2B92
:100EF0008B2B19F40F900FBE40C0211103C0CE01FF
:100F000001961BD50F900FBEA2D20FB6F8940F9288
:100F1000F70181A18F3F09F411A2F70182A18F3F50
:100F200009F412A20F900FBEBE016A5F7F4FCE017F
:100F3000019614D581111EC00FB6F8940F92F701D7
:100F4000968D0F900FBEF701878D98130FC04E81BD
:100F50005F8168857985C5018FD4C701E2DE47D3FB
:100F6000882311F021E09FCF59D7FCCFC701D9DEEC
:100F70003ED3F8CFC701D5DE3AD380E029960FB62D
:100F8000F894DEBF0FBECDBFDF91CF910F91FF90E0
:100F9000EF90DF90CF90BF90AF900895AF92BF9247
:100FA000CF92DF92EF92FF920F93CF93DF93CDB763
:100FB000DEB729970FB6F894DEBF0FBECDBF7C0118
:100FC0006B012E833F834887598720E05C0183E1D2
:100FD000A80EB11C0FB6F8940F92F701868D8823E6
:100FE00061F1A680B780B601C70181DEF70101116A
:100FF00016C0868D8150868F80819181892B21F446
:101000009AD5F70193838283F7018085882389F03D
:10101000C701089655D4813061F400D70AC0B78261
:10102000A6828389882329F0C701439649D4811178
:10103000F4CF0F900FBE81E058C08E819F81A885AC
:10104000B985892B8A2B8B2B19F40F900FBE4CC0BE
:10105000211103C0CE01019670D40F900FBEF7D1BD
:101060000FB6F8940F92F70181A18F3F09F411A2F6
:10107000F70182A18F3F09F412A20F900FBEBE01AB
:101080006A5F7F4FCE01019669D481112AC00FB6E5
:10109000F8940F92F701868D0F900FBE81111DC03D
:1010A000F70180819181892B49F40FB6F8940F9252
:1010B000F70182819381ABD40F900FBE4E815F8187
:1010C00068857985C501D8D3C7012BDE90D28823E6
:1010D00011F021E07FCFA2D6FCCFC70122DE87D25C
:1010E000F8CFC7011EDE83D280E029960FB6F894B0
:1010F000DEBF0FBECDBFDF91CF910F91FF90EF907C
:10110000DF90CF90BF90AF900895E0911C02F091D6
:101110001D028081811104C08FEF9FEFDC010EC0A2
:10112000E0911C02F0911D020780F085E02D008403
:10113000F185E02D82819381A481B5818093F401B2
:101140009093F501A093F601B093F7010895CF9223
:10115000DF92EF92FF926B017C01E091A202F0918D
:10116000A30262837383848395838091FE019091AF
:10117000FF01A0910002B09101026091A202709162
:10118000A302C816D906EA06FB0658F480911A0293
:1011900090911B026E5F7F4FFF90EF90DF90CF909A
:1011A00027C780911C0290911D026E5F7F4F20D750
:1011B0008091F4019091F501A091F601B091F701B1
:1011C000C816D906EA06FB0640F4C092F401D09294
:1011D000F501E092F601F092F701FF90EF90DF90B9
:1011E000CF9008955F926F927F928F929F92AF926D
:1011F000BF92CF92DF92EF92FF920F931F93CF9304
:10120000DF934C01162F572E5A013901C114D10416
:1012100031F4CA01A2D46C01009709F4C7C08CE272
:1012200090E09BD4EC01009761F0DC8ECB8E21E046
:10123000A21AB108AC0CBD1CE12FF52D80E090E0A6
:1012400007C0C6011AD5B2C001968830910561F079
:10125000BF0141919E01280F391FD9015D964C9322
:10126000DB012C912111F0CF1CA2102F0A3008F0C5
:1012700019E01A8F1DA31EA26E01B2E0CB0ED11C85
:10128000C60191D6CE010E968ED6DB87CA878AE03C
:1012900090E0A0E0B0E0811B9109A109B1098E871F
:1012A0009F87A88BB98BDF8BCE8B1FA218A619A6A0
:1012B0001AA61BA6A301B401C50109D59983888389
:1012C000E114F10419F0F701D183C0830FB6F8944B
:1012D0000F92809102028F5F809302028091A2029E
:1012E0009091A302892B79F5D093A302C093A20217
:1012F000809102028130B1F584E3E82E82E0F82E7D
:10130000C70140D6FBE0EF0EF11C22EAE21622E014
:10131000F206B1F789E292E035D68EE192E032D65C
:101320008FE092E02FD684E092E02CD689E292E022
:1013300090931D0280931C028EE192E090931B0219
:1013400080931A020FC08091FC0181110BC0E091C3
:10135000A202F091A302828D081720F0D093A3027D
:10136000C093A2028091F8018F5F8093F8018A8D6B
:101370009091FD01981710F48093FD01ABE08A9FD6
:10138000C0011124B6018C5C9D4F11D60F900FBE89
:101390008091FC01882341F0E091A202F091A30228
:1013A000828D801708F43AD581E001C08FEFDF917C
:1013B000CF911F910F91FF90EF90DF90CF90BF9052
:1013C000AF909F908F907F906F905F900895AF92B5
:1013D000BF92CF92DF92EF92FF920F93A12CB12C8C
:1013E000C12CD12CE12CF12C00E020E030E045E5CF
:1013F00050E069E371E08EEC9BE0F4DE8130F9F4BB
:10140000F8948FEF9FEFDC018093F4019093F50146
:10141000A093F601B093F70181E08093FC01109254
:10142000FE011092FF0110920002109201020F9132
:10143000FF90EF90DF90CF90BF90AF90B4C40F912A
:10144000FF90EF90DF90CF90BF90AF900895809184
:10145000F3018F5F8093F3010895AF92BF92CF9213
:10146000DF92EF92FF920F931F93CF93DF938091C0
:10147000F3018111A4C08091FE019091FF01A09120
:101480000002B09101020196A11DB11D8093FE01E1
:101490009093FF01A0930002B0930102C090FE015F
:1014A000D090FF01E0900002F0900102C114D1043D
:1014B000E104F104B1F480911C0290911D0220918D
:1014C0001A0230911B0230931D0220931C0290934C
:1014D0001B0280931A028091F9018F5F8093F901BA
:1014E00014DE8091F4019091F501A091F601B09184
:1014F000F701B12CC816D906EA06FB0608F44EC05F
:101500009BE0A92EE0911C02F0911D0280818111C7
:1015100004C04FEF5FEFBA0112C0E0911C02F091DE
:101520001D020780F085E02DC085D1854A815B8151
:101530006C817D81C416D506E606F70648F4409313
:10154000F4015093F5016093F6017093F70126C002
:101550008E010E5F1F4FC8018FD5888D998D892B05
:1015600019F0CE010E9688D52A8D8091FD01821743
:1015700010F42093FD01A29EC0011124B8018C5CDF
:101580009D4F15D5E091A202F091A3029A8D828D14
:10159000981708F4B7CFBB24B394B4CFE091A2025C
:1015A000F091A302E28D8BE0E89FF0011124EC5C46
:1015B000FD4F8081823048F0BB24B39406C08091F7
:1015C000FB018F5F8093FB01B12C8091FA0188238E
:1015D00011F0BB24B3948B2DDF91CF911F910F910C
:1015E000FF90EF90DF90CF90BF90AF900895EF9273
:1015F000FF920F931F93CF93DF930FB6F8940F9240
:101600008091F30181508093F3018091F30188234D
:1016100011F080E04EC0809102028823D1F32BE0CC
:10162000F22EEE24E39480910F02882339F1E091A9
:101630001602F0911702C085D185CE010E961CD5F9
:101640008E010E5F1F4FC80117D58A8D9091FD0145
:10165000981710F48093FD01F89EC0011124B80181
:101660008C5C9D4FA4D4E091A202F091A3029A8DCC
:10167000828D9817C0F2E092FA01D5CF8091FB01DC
:10168000811108C08091FA01813009F0C2CFC6D320
:1016900081E00FC0C1E08091FB01882399F3DDDE7A
:1016A0008111C093FA018091FB0181508093FB016D
:1016B000F2CF0F900FBEDF91CF911F910F91FF904E
:1016C000EF900895AF92BF92CF92DF92EF92FF9288
:1016D0000F931F93CF93DF9300D000D0CDB7DEB729
:1016E0005C0149835A836B837C83B1DEC090FE0129
:1016F000D090FF01E0900002F0900102F50100811E
:1017000011812281338149815A816B817C81400F13
:10171000511F621F731FC016D106E206F30638F48C
:10172000401751076207730768F481E006C081E043
:10173000401751076207730730F0C416D506E60656
:10174000F70608F080E0F5014083518362837383DC
:10175000882389F08091A2029091A3020296498386
:101760005A836B837C8388D449815A816B817C81C5
:10177000CB01BA01ECDC3BDF811101C04FD30F90EC
:101780000F900F900F90DF91CF911F910F91FF90CD
:10179000EF90DF90CF90BF90AF90089580910302BB
:1017A000882321F154DEC091040221DFCC23B1F360
:1017B0000FB6F8940F92E0910B02F0910C02C085E5
:1017C000D185CE01029658D4809102028150809337
:1017D0000202809103028150809303020F900FBE9A
:1017E0008B8D9C8D4AD2CE0148D2D8CF80913402C5
:1017F0008230A0F213D3D2CF8091F301882321F05D
:1018000081E08093FA0108951092FA019BE0E09143
:10181000FD019E9FF0011124EC5CFD4F8081811140
:1018200006C08091FD0181508093FD01F0CFE091D1
:10183000FD018BE0E89FF0011124EC5CFD4FA181DC
:10184000B28114960D90BC91A02DB283A183CF01DB
:101850000396A817B90731F414968D919C911597AA
:10186000928381830180F281E02D80859185909320
:10187000A3028093A2020895CF92DF92EF92FF928B
:101880006A017B016091A2027091A302625F7F4FA7
:10189000AFD38091A2029091A3020296EDD3609102
:1018A000FE017091FF0180910002909101026C0D88
:1018B0007D1D8E1D9F1DFF90EF90DF90CF9047CC38
:1018C0000F931F93CF93DF93DC011796ED91FC915B
:1018D0001897C085D1858E01025F1F4FC801CCD3F8
:1018E0008091F301811113C00C501109C801C4D3B8
:1018F0008A8D9091FD01981710F48093FD01BBE053
:101900008B9FC0011124B8018C5C9D4F03C0B801AE
:101910008FE092E04CD3E091A202F091A3029A8D65
:10192000828D891720F481E08093FA0101C080E064
:10193000DF91CF911F910F9108952091F901FC0142
:1019400020834091FE015091FF016091000270914F
:101950000102418352836383748308958F929F921F
:10196000AF92BF92CF92DF92EF92FF920F931F93AD
:10197000CF93DF93FB010FB6F8940F920091FE0115
:101980001091FF012091000230910102B091F90104
:10199000EC01A88149815A816B817C81BA1729F0B9
:1019A0000417150726073707F0F4C080D180E280BE
:1019B000F38048015901841A950AA60AB70A8C14C3
:1019C0009D04AE04BF0478F4401B510B620B730BF3
:1019D0004C0D5D1D6E1D7F1D40835183628373839B
:1019E000ACDF80E001C081E00F900FBEDF91CF91AE
:1019F0001F910F91FF90EF90DF90CF90BF90AF902D
:101A00009F908F90089581E08093FA0108950F933D
:101A10001F93CF93DF93EC01009709F44EC08A8D9A
:101A2000E091A202F091A302928D891708F045C0BF
:101A30004E855F856889798977FD11C0E091A202A2
:101A4000F091A302928D4AE050E060E070E0491B03
:101A50005109610971094E875F87688B798B2BE08B
:101A6000829FC00111248C5C9D4F2C853D852817D9
:101A70003907E9F48E010E5F1F4FC801FDD2E091D6
:101A8000A202F091A302828D8A8F9091FD01981796
:101A900010F48093FD012BE0829FC0011124B80156
:101AA0008C5C9D4FDF91CF911F910F9180C2E0918F
:101AB000A202F091A302828D8A8FDF91CF911F91B4
:101AC0000F9108950F931F93CF93DF93EC0100972D
:101AD00011F480E02BC08EA181508EA32A8D9DA190
:101AE0002917B9F38111F5CF8E010E5F1F4FC80181
:101AF000C3D28DA18A8F4AE050E060E070E0481BBD
:101B00005109610971094E875F87688B798B9091C4
:101B1000FD01981710F48093FD012BE0829FC00116
:101B20001124B8018C5C9D4F42D281E0DF91CF91AE
:101B30001F910F9108958091A2029091A302892B89
:101B400039F0E091A202F091A30286A18F5F86A3F3
:101B50008091A2029091A30208950F931F93CF93B7
:101B6000DF93EC0174DC8091A402811121C08EEA24
:101B700092E09093AA028093A9021092AC02109274
:101B8000AB028BED95E09093A8028093A702109290
:101B9000A6021092A5029093B1028093B00285EA4A
:101BA00092E09093AF028093AE0281E08093A40212
:101BB000209709F02496CE0101978A3D954008F0C0
:101BC00053C0E091A902F091AA02A9EAB2E0828191
:101BD00093818C179D0728F022E0E53AF20749F43B
:101BE00043C02081318121153105B1F3DF01F901B5
:101BF000EECF0D911C9111970C5F1F4F2081318109
:101C00002D933C938C1B9D0B8930910500F1DF01D6
:101C1000AC0FBD1F13969C938E931297D383C283F0
:101C200012962D913C91139769EA72E0EB0188813D
:101C30009981EC014A815B814217530710F4BC0182
:101C4000F5CF11969C938E93EB01B983A883809175
:101C50000F019091100122813381821B930B90938D
:101C6000100180930F0102C000E010E0C0DCC80149
:101C7000DF91CF911F910F910895CF93DF9300973C
:101C800019F1EC012497E3DB2A813B81E9EAF2E0D8
:101C9000A081B18112968D919C9113978217930721
:101CA00010F4FD01F5CFB983A883D183C08380915F
:101CB0000F0190911001820F931F90931001809358
:101CC0000F01DF91CF9193CCDF91CF91089531E156
:101CD000FC013083319722E220833197A3E3A08374
:101CE000319760833197708331971082319760E824
:101CF000608331971082319762E06083319763E0AF
:101D00006083319764E06083319765E06083319749
:101D100066E06083319767E06083319768E06083B5
:101D2000319769E06083319760E160833197308358
:101D3000319732E13083319733E13083319734E1A9
:101D40003083319735E13083319736E130833197F5
:101D500037E13083319738E13083319739E130838F
:101D6000319730E23083319731E2308331972083ED
:101D7000319723E220833197408331975083319705
:101D800026E22083319727E22083319728E22083BF
:101D9000319729E22083319720E32083319721E393
:101DA00020838697089589E08093890083EC80934F
:101DB00088008BE080938100EFE6F0E08081826014
:101DC0008083A091A202B091A302CD91CDBFDD91FD
:101DD000DEBFFF91EF91DF91CF91BF91AF919F91C6
:101DE0008F917F916F915F914F913F912F911F91B3
:101DF0000F91FF90EF90DF90CF90BF90AF909F90AA
:101E00008F907F906F905F904F903F902F901F909A
:101E10000F900FBE0F90089581E008950F920FB6B6
:101E2000F8940F921F9211242F923F924F925F923B
:101E30006F927F928F929F92AF92BF92CF92DF92DA
:101E4000EF92FF920F931F932F933F934F935F93C4
:101E50006F937F938F939F93AF93BF93CF93DF93B2
:101E6000EF93FF93A091A202B091A3020DB60D9241
:101E70000EB60D92C1DCA091A202B091A302CD9149
:101E8000CDBFDD91DEBFFF91EF91DF91CF91BF918B
:101E9000AF919F918F917F916F915F914F913F9102
:101EA0002F911F910F91FF90EF90DF90CF90BF90F7
:101EB000AF909F908F907F906F905F904F903F90EA
:101EC0002F901F900F900FBE0F9008950F920FB696
:101ED000F8940F921F9211242F923F924F925F928B
:101EE0006F927F928F929F92AF92BF92CF92DF922A
:101EF000EF92FF920F931F932F933F934F935F9314
:101F00006F937F938F939F93AF93BF93CF93DF9301
:101F1000EF93FF93A091A202B091A3020DB60D9290
:101F20000EB60D929ADA811167DCA091A202B091EF
:101F3000A302CD91CDBFDD91DEBFFF91EF91DF9187
:101F4000CF91BF91AF919F918F917F916F915F9151
:101F50004F913F912F911F910F91FF90EF90DF9044
:101F6000CF90BF90AF909F908F907F906F905F9039
:101F70004F903F902F901F900F900FBE0F9008959D
:101F8000A5DF1895FC010396928381834FEF5FEFE5
:101F9000BA014383548365837683908787839287CE
:101FA000818710820895FC01138612860895CF93CD
:101FB000DF939C01FB01DC011196CD91DC9112971E
:101FC000D583C4838E819F81978386838E819F81F1
:101FD000DC0115967C936E9314977F836E83338711
:101FE0002287F90180818F5F8083DF91CF910895EF
:101FF000EF92FF920F931F93CF93DF937C01FB012E
:1020000040815181628173814F3F8FEF580768078C
:10201000780721F4E701A985BA8512C0D701139684
:1020200014968D919C911597EC01088119812A8154
:102030003B81401751076207730710F0DC01F0CFB6
:1020400014968D919C91159795838483EC01FF8361
:10205000EE83B783A6831596FC93EE931497F386CD
:10206000E286F70180818F5F8083DF91CF911F919E
:102070000F91FF90EF900895CF93DF93FC01A2851D
:10208000B3858481958126813781EC013F832E833E
:10209000C681D7819D838C8311968D919C911297D7
:1020A0008E179F0721F41296DC93CE931197138617
:1020B00012868C9181508C93DF91CF910895A1E28B
:1020C0001A2EAA1BBB1BFD010DC0AA1FBB1FEE1FB2
:1020D000FF1FA217B307E407F50720F0A21BB30BFD
:1020E000E40BF50B661F771F881F991F1A9469F779
:1020F00060957095809590959B01AC01BD01CF01D5
:102100000895EE0FFF1F0590F491E02D0994FB0157
:10211000DC0102C001900D9241505040D8F7089563
:04212000F894FFCF61
:1021240000008908800001000000FF8D038D03DB9F
:102134000500000000030150028700A0009200E2A5
:1021440000000000000A027461736B310074617353
:0E2154006B32007461736B330049444C4500DC
:00000001FF
