:100000005EC0000020C4000045C400007FC00000A6
:100010007DC000007BC0000079C0000098C30000D4
:1000200075C0000073C0000071C000000C94311353
:100030006DC000006BC0000069C0000067C0000018
:100040005BC4000063C00000A4C10000D4C1000074
:100050005DC000005BC0000059C0000057C0000038
:1000600055C0000053C0000002000000080002015B
:10007000000003040700000000000000000102046B
:10008000081020408001020408102001020408101A
:100090002004040404040404040202020202020311
:1000A000030303030300000000250028002B0000C9
:1000B000000000240027002A00002902A3021124C6
:1000C0001FBECFEFD8E0DEBFCDBF11E0A0E0B1E0B2
:1000D000ECEAFDE202C005900D92A23DB107D9F70E
:1000E00029E0A2EDB1E001C01D92A834B207E1F70A
:1000F00010E0CEEBD0E004C02297FE010E9408146D
:10010000CA3BD107C9F7EED30C94D41679CFFC01C2
:10011000818D228D90E0805C9F4F821B91098F73AF
:1001200099270895FC01918D828D981731F0828D69
:10013000E80FF11D858D90E008958FEF9FEF0895F2
:10014000FC01918D828D981761F0828DDF01A80FDF
:10015000B11D5D968C91928D9F5F9F73928F90E001
:1001600008958FEF9FEF089580E292E0892B41F090
:1001700080E090E0892B21F063D181110C94000084
:100180000895FC01848DDF01A80FB11DA35ABF4F54
:100190002C91848D90E001968F739927848FA68986
:1001A000B7892C93A089B1898C9180648C93938DAD
:1001B000848D981306C00288F389E02D80818F7D9D
:1001C00080830895CF93DF93EC01888D8823C1F05D
:1001D000EA89FB89808185FD05C0A889B9898C9150
:1001E00086FD0EC00FB607FCF5CF808185FFF2CFEC
:1001F000A889B9898C9185FFEDCFCE01C2DFE8CF08
:10020000DF91CF910895CF92DF92FF920F931F93CA
:10021000CF93DF931F92CDB7DEB76C0181E0D6019B
:1002200058968C9358975B969C915B975C968C91B3
:100230005C97981307C05096ED91FC91519780817F
:1002400085FD2DC0F601038D10E00F5F1F4F0F736A
:100250001127F02EF601848DF81210C00FB607FC9E
:10026000F9CFD6015096ED91FC915197808185FF91
:10027000F1CFC601698385DF6981ECCF838DE80FFB
:10028000F11DE35AFF4F6083D6015B960C935B9799
:100290005296ED91FC915397808180620CC0D601FB
:1002A0005696ED91FC91579760835096ED91FC9195
:1002B000519780818064808381E090E00F90DF918E
:1002C000CF911F910F91FF90DF90CF900895BF9233
:1002D000CF92DF92EF92FF92CF93DF93EC016A010E
:1002E0007B01B22EE889F98982E08083411581EE95
:1002F000580761057105A1F060E079E08DE390E0B9
:10030000A70196010E94E4132150310941095109C6
:100310005695479537952795211580E1380798F030
:10032000E889F989108260E874E88EE190E0A7011D
:1003300096010E94E4132150310941095109569553
:10034000479537952795EC85FD853083EE85FF85AC
:100350002083188EEC89FD89B082EA89FB8980812F
:1003600080618083EA89FB89808188608083EA8953
:10037000FB89808180688083EA89FB8980818F7D09
:100380008083DF91CF91FF90EF90DF90CF90BF906F
:1003900008951F920F920FB60F9211242F938F93EF
:1003A0009F93EF93FF93E091E201F091E30180814D
:1003B000E091E801F091E90182FD12C09081809105
:1003C000EB018F5F8F732091EC01821751F0E09168
:1003D000EB01F0E0EE52FE4F958F8093EB0101C0F0
:1003E0008081FF91EF919F918F912F910F900FBE80
:1003F0000F901F9018951F920F920FB60F92112415
:100400002F933F934F935F936F937F938F939F931C
:10041000AF93BF93EF93FF9382ED91E0B2DEFF9134
:10042000EF91BF91AF919F918F917F916F915F916C
:100430004F913F912F910F900FBE0F901F901895E5
:1004400082ED91E064DE21E0892B09F420E0822F27
:1004500008951092D5011092D40188EE93E0A0E0A7
:10046000B0E08093D6019093D701A093D801B093C8
:10047000D90186E191E09093D3018093D20185EC7C
:1004800090E09093DF018093DE0184EC90E0909304
:10049000E1018093E00180EC90E09093E301809390
:1004A000E20181EC90E09093E5018093E40182EC1D
:1004B00090E09093E7018093E60186EC90E09093C2
:1004C000E9018093E8011092EB011092EC01109287
:1004D000ED011092EE010895AF92BF92CF92DF929C
:1004E000EF92FF920F931F93CF93DF936C017B01E9
:1004F000C0E0D0E000E010E0F601EC0FFD1F4AE0A4
:1005000050E06281C701EAD05C016EE2C70168D0A9
:100510008A0D9B1D080F191F2196C330D10561F765
:100520004AE050E0F6016581C701D8D0800F911FE5
:10053000DF91CF911F910F91FF90EF90DF90CF90BF
:10054000BF90AF90089586E291E0909370028093FF
:100550006F02109271021092720210927302109246
:1005600074020895CF92DF92EF92FF920F931F9340
:10057000CF93DF937C016A01EB0100E010E00C15E2
:100580001D0571F06991D701ED91FC910190F08109
:10059000E02DC7010995892B19F00F5F1F4FEFCF91
:1005A000C801DF91CF911F910F91FF90EF90DF90E5
:1005B000CF9008956115710581F0DB010D90002049
:1005C000E9F7AD0141505109461B570BDC01ED9194
:1005D000FC910280F381E02D099480E090E0089581
:1005E000DC01ED91FC910190F081E02D099468E22D
:1005F00071E0E0CF0F931F93CF93DF93EC01DADF2D
:100600008C01CE01F4DF800F911FDF91CF911F91FC
:100610000F9108958F929F92AF92BF92CF92DF92E7
:10062000EF92FF920F931F93CF93DF93CDB7DEB777
:10063000A1970FB6F894DEBF0FBECDBF7C01C42ECC
:10064000E52FCB01D22E19A221E02D1510F02AE0C2
:10065000D22E8E010F5D1F4F8D2C912CA12CB12C11
:100660006C2D7E2FA50194010E94E4138C2DD29E47
:1006700080191124015011098A3010F4805D01C0E5
:10068000895CF8018083211531054105510521F070
:10069000C22EE32FCA01E4CFB801C7018BDFA196B8
:1006A0000FB6F894DEBF0FBECDBFDF91CF911F9183
:1006B0000F91FF90EF90DF90CF90BF90AF909F9001
:1006C0008F9008952115310541F4DC01ED91FC91E5
:1006D0000190F081E02D642F09949CCF9A01462F60
:1006E00050E060E070E0EECF813039F018F08230F9
:1006F00051F0089510926E00089580916F008D7FE3
:1007000080936F000895809170008D7F80937000BA
:1007100081E08093B0008091B100887F84608093F5
:10072000B1001092B3000895CF93C82F80910A01B1
:100730008C1307C0E8E6F0E084919FEF90930A01E4
:1007400001C08FEFD1DF60E08C2FCF9142C21F92AA
:100750000F920FB60F9211242F933F934F935F93F5
:100760006F937F938F939F93AF93BF93EF93FF9379
:100770008091780290917902A0917A02B0917B02E7
:10078000892B8A2B8B2B51F190917502E091760287
:10079000F0917702808189278083809178029091FF
:1007A0007902A0917A02B0917B02181619061A06F6
:1007B0001B06BCF48091780290917902A0917A0294
:1007C000B0917B020197A109B109809378029093BF
:1007D0007902A0937A02B0937B0203C080910A0150
:1007E000A3DFFF91EF91BF91AF919F918F917F9187
:1007F0006F915F914F913F912F910F900FBE0F908E
:100800001F90189508958230E8F4E82FF0E0EE0F7D
:10081000FF1FE55FFE4F71836083813041F080915F
:1008200069008C7F842B80936900E89A08958091F9
:100830006900440F551F440F551F837F842B8093FD
:100840006900E99A08951F920F920FB60F92112432
:100850002F933F934F935F936F937F938F939F93C8
:10086000AF93BF93EF93FF93E0910B01F0910C01D5
:100870000995FF91EF91BF91AF919F918F917F91DA
:100880006F915F914F913F912F910F900FBE0F90FD
:100890001F9018951F920F920FB60F9211242F934D
:1008A0003F934F935F936F937F938F939F93AF93F8
:1008B000BF93EF93FF93E0910D01F0910E01099525
:1008C000FF91EF91BF91AF919F918F917F916F9128
:1008D0005F914F913F912F910F900FBE0F901F90FE
:1008E000189508955FD0FDDF03D4C4EBD0E052D457
:1008F0002097E9F339DCFBCF1F920F920FB60F92CE
:1009000011242F933F938F939F93AF93BF93809125
:100910007D0290917E02A0917F02B0918002309181
:100920007C0223E0230F2D3720F40196A11DB11D79
:1009300005C026E8230F0296A11DB11D20937C025D
:1009400080937D0290937E02A0937F02B0938002F9
:100950008091810290918202A0918302B0918402E1
:100960000196A11DB11D8093810290938202A093F4
:100970008302B0938402BF91AF919F918F913F9179
:100980002F910F900FBE0F901F9018952FB7F894CE
:1009900060917D0270917E0280917F029091800231
:1009A0002FBF0895789484B5826084BD84B581603A
:1009B00084BD85B5826085BD85B5816085BDEEE667
:1009C000F0E0808181608083E1E8F0E01082808146
:1009D00082608083808181608083E0E8F0E08081B4
:1009E00081608083E1EBF0E0808184608083E0EBD4
:1009F000F0E0808181608083EAE7F0E080818460BC
:100A00008083808182608083808181608083808117
:100A1000806880831092C10008958E3008F08E5057
:100A2000877020910F0190E4299F90011124822B5F
:100A300080937C0080917A00806480937A0080911A
:100A40007A0086FDFCCF809178002091790090E0BB
:100A5000922B08951F93CF93DF93182FEB0161E042
:100A60007FD0209711F460E004C0CF3FD10531F46E
:100A700061E0812FDF91CF911F91ABC0E12FF0E0BA
:100A8000E759FF4FE491E330F9F048F4E130B9F071
:100A9000E230A1F584B5806284BDC8BD34C0E730C2
:100AA000E9F0E83019F1E43049F580918000806286
:100AB00080938000D0938B00C0938A0024C084B5BB
:100AC000806884BDC7BD1FC080918000806880930E
:100AD0008000D0938900C093880015C08091B00039
:100AE00080688093B000C093B3000DC08091B000C7
:100AF00080628093B000C093B40005C0C038D105B7
:100B00000CF0B6CFB0CFDF91CF911F910895833015
:100B100081F028F4813099F08230A1F00895873077
:100B2000A9F08830B9F08430D1F4809180008F7DB5
:100B300003C0809180008F7780938000089584B5F2
:100B40008F7702C084B58F7D84BD08958091B000F9
:100B50008F7703C08091B0008F7D8093B00008959F
:100B6000CF93DF9390E0FC01E358FF4F2491FC0109
:100B7000EF56FF4F8491882349F190E0880F991F29
:100B8000FC01E155FF4FA591B4918B559F4FFC019E
:100B9000C591D4919FB7611108C0F8948C912095AC
:100BA00082238C93888182230AC0623051F4F894A6
:100BB0008C91322F309583238C938881822B88836C
:100BC00004C0F8948C91822B8C939FBFDF91CF91BE
:100BD00008950F931F93CF93DF931F92CDB7DEB786
:100BE000282F30E0F901E759FF4F8491F901E358CC
:100BF000FF4F1491F901EF56FF4F04910023C1F00C
:100C0000882319F0698383DF6981E02FF0E0EE0F1C
:100C1000FF1FEB55FF4FA591B4919FB7F8948C91AE
:100C2000611103C01095812301C0812B8C939FBF5C
:100C30000F90DF91CF911F910F910895CF93DF9384
:100C400000D000D0CDB7DEB700E02FEF3FEFA90115
:100C500060E070E08091A0029091A102C5D4813043
:100C600099F721D769837A838B839C8361E089E03C
:100C7000B0DF48EE53E060E070E0CE0101960E94E4
:100C8000960E60E089E0A5DFDFCFD9E116EFC5E57C
:100C90008091AE029091AF02D89FB001D99F700DA4
:100CA00011248AE0D7DE2091AE023091AF02120308
:100CB000B001139F700D1124625E7F4F80E090E0C1
:100CC0000E94020F60E070E08AE0C4DE2091AE0274
:100CD0003091AF021203B001139F700D1124625EB8
:100CE0007F4F80E090E00E94020F8091AE029091D1
:100CF000AF02C89FB001C99F700D11248BE0AADE1E
:100D0000C7CFCF93DF9300D000D0CDB7DEB780E15F
:100D1000E82E87E2F82E14E6C6D669837A838B83A1
:100D20009C8300E02FEF3FEF40E050E060E070E098
:100D30008091A2029091A30257D4813001F5409195
:100D4000B0025091B1022091AC023091AD022E9DC3
:100D5000C0012F9D900D3E9D900D1124149F900178
:100D6000159F300D1124820F931F2091AE023091F8
:100D7000AF02820F931F90939B0280939A0200E030
:100D80002FEF3FEFA9016AE972E080919E029091F6
:100D90009F0266D348EE53E060E070E0CE0101961A
:100DA000C5D7BACFCF93DF9300D000D0CDB7DEB791
:100DB0007AD669837A838B839C8385E02EDE97FFC6
:100DC00002C081509F4F792F770F770B9093AC0221
:100DD0007093AD0200E02FEF3FEFA901692F8091E2
:100DE0009C0290919D023CD344EF51E060E070E0A2
:100DF000CE0101969BD7DCCFCF93DF9300D000D0FC
:100E0000CDB7DEB790E1A92E97E2B92E24E6822E67
:100E1000912C39E3E32E31E0F32E46E8C42E42E074
:100E2000D42E41D669837A838B839C8300E02FEF95
:100E30003FEFA9016AE972E080919E0290919F02C2
:100E4000D3D38130E9F420919A0230919B02C901F9
:100E5000B5010E94D0137F936F93C901B4010E9422
:100E6000D0137F936F933F932F93FF92EF92DF9274
:100E7000CF920E9415140FB6F894DEBF0FBECDBFFF
:100E800048EE53E060E070E0CE0101964FD7C9CF45
:100E90008091B0029091B1020397A8F48091B002C2
:100EA0009091B10201969093B1028093B00260914B
:100EB000B0027091B10220E045E852E080919C02BE
:100EC00090919D0265C30895CF92DF92EF92FF92B9
:100ED000CF93DF9300D000D0CDB7DEB757DDC09001
:100EE000A802D090A902E090AA02F090AB0228ECF0
:100EF000C20ED11CE11CF11CC616D706E806F90685
:100F000088F469837A838B839C83C2DF69817A81C9
:100F10008B819C816093A8027093A9028093AA029E
:100F20009093AB020F900F900F900F90DF91CF91A5
:100F3000FF90EF90DF90CF9008958091B002909154
:100F4000B102892BA9F08091B0029091B102019772
:100F50009093B1028093B0026091B0027091B1029F
:100F600020E045E852E080919C0290919D0210C3E0
:100F70000895CF92DF92EF92FF92CF93DF9300D04C
:100F800000D0CDB7DEB702DDC090A402D090A5029C
:100F9000E090A602F090A70228ECC20ED11CE11C42
:100FA000F11CC616D706E806F90688F469837A8329
:100FB0008B839C83C2DF69817A818B819C81609362
:100FC000A4027093A5028093A6029093A7020F90AB
:100FD0000F900F900F90DF91CF91FF90EF90DF90E7
:100FE000CF9008958091AE029091AF02813091052B
:100FF00039F018F0029739F009C060E086E0E9DDC9
:1010000060E087E0E6DD60E088E0E3DD8091AE024D
:101010009091AF028230910549F08330910519F02B
:10102000019751F406C061E088E0D3DD61E087E01C
:10103000D0DD61E086E0CDCD0895CF93DF9300D081
:10104000CDB7DEB700E02FEF3FEFA901BE016F5F24
:101050007F4F80919C0290919D02C6D2813091F782
:101060002FEF3FEFA90160E070E08091A202909124
:10107000A302BAD2813031F74091AE025091AF0253
:101080002091B0023091B1028091AC029091AD02FA
:101090002817390728F42091B0023091B10201C01D
:1010A0009C013093AF022093AE022091B0023091A8
:1010B000B1028217930718F48417950768F092DF3E
:1010C00000E020E030E0A90160E070E08091A20241
:1010D0009091A302C5D1B6CF00E020E030E0A90195
:1010E00060E070E08091A0029091A102B9D1E7CFB9
:1010F0000F9361E086E034DD61E087E031DD61E09F
:1011000088E02EDD61E089E02BDD43E050E064E61D
:1011100077E081E078DB43E050E069EB77E080E066
:1011200072DB40E062E083E068D190939F0280939D
:101130009E0240E062E083E060D190939D02809344
:101140009C0243E060E081E058D19093A302809339
:10115000A20243E060E081E050D19093A10280932D
:10116000A00200E020E030E0A90160E070E08091A2
:10117000A2029091A30274D126E040E052EC61E01B
:1011800070E082ED91E0A3D862E571E082ED91E03C
:101190000F9130CAAF92BF92CF92DF92EF92FF923F
:1011A0000F93A12CB12CC12CD12CE12CF12C06E0F9
:1011B00020E030E044E650E069E571E082ED96E041
:1011C00037D305E020E030E044E650E06EE671E021
:1011D0008DE198E02DD304E020E030E044E650E0DB
:1011E0006EE871E085E496E023D303E020E030E090
:1011F00044E650E06FE971E08EE196E019D302E039
:1012000020E030E044E650E06BEA71E081E896E0EF
:101210000FD301E020E030E044E650E06CEB71E0F9
:101220008CEF96E005D30F91FF90EF90DF90CF9079
:10123000BF90AF90F2C31F93CF93DF93EC01142FB5
:1012400048A141110BC088819981892B09F040C0C8
:101250008A819B81A8D71B821A823BC050E0111162
:1012600015C08C819D810E940C1428A18C819D81C8
:10127000820F911D9D838C832A813B818217930766
:1012800038F1888199819D838C8322C08E819F81D2
:101290000E940C1428A130E03195219531098E81EE
:1012A0009F81820F931F9F838E8368817981861728
:1012B000970730F48A819B81820F931F9F838E83CF
:1012C000123031F48E8D882319F08E8D81508E8FDF
:1012D00080E09E8D9F5F9E8FDF91CF911F9108953B
:1012E000FC01CB0140A14423A1F050E026813781CD
:1012F000240F351F378326836281738126173707B2
:1013000020F02081318137832683668177810C9498
:101310000C1408950F931F93CF93DF93EC010FB636
:10132000F8940F928C010D5E1F4F8AA118165CF481
:101330008B89882341F0C80134D68111D5D68AA182
:1013400081508AA3F2CF8FEF8AA30F900FBE0FB602
:10135000F8940F928E01085F1F4F89A118165CF454
:101360008885882341F0C8011CD68111BDD689A18A
:10137000815089A3F2CF8FEF89A30F900FBEDF9129
:10138000CF911F910F910895CF93DF93EC010FB68A
:10139000F8940F92288139818F8D78A1879FC001A1
:1013A0001124A901480F591F5B834A831E8E3D8378
:1013B0002C83871B9109820F931F9F838E838FEF4E
:1013C00089A38AA361110BC08885882381F0CE018F
:1013D0000896E7D5813059F40E947F1208C0CE01EB
:1013E00008960E943313CE0143960E9433130F9048
:1013F0000FBE81E0DF91CF910895EF92FF921F938E
:10140000CF93DF931F92CDB7DEB7182F662329F055
:10141000869FC0011124019602C080E090E083966F
:1014200069830CD77C016981009791F0611104C038
:10143000FC019183808306C09C012D5D3F4FFC0120
:1014400031832083F701178F60A361E0C7019CDF20
:10145000C7010F90DF91CF911F91FF90EF900895FA
:10146000AF92BF92CF92DF92EF92FF920F93CF9302
:10147000DF93CDB7DEB729970FB6F894DEBF0FBE66
:10148000CDBF7C016B012E833F834887598720E0C5
:101490005C0188E0A80EB11C0FB6F8940F92F7011A
:1014A000968D878D981710F00230B1F4402FB60159
:1014B000C701C1DEF7019389992341F0C701439623
:1014C00070D5813029F40E947F1202C08111FBCFB8
:1014D0000F900FBE81E04CC08E819F81A885B98599
:1014E000892B8A2B8B2B19F40F900FBE40C0211132
:1014F00003C0CE01019692D50F900FBECED20FB68B
:10150000F8940F92F70181A18F3F09F411A2F7011E
:1015100082A18F3F09F412A20F900FBEBE016A5F35
:101520007F4FCE0101968BD581111EC00FB6F89466
:101530000F92F701968D0F900FBEF701878D9813CC
:101540000FC04E815F8168857985C50106D5C701C9
:10155000E1DE81D3882311F021E09ECFD0D7FCCFEC
:10156000C701D8DE78D3F8CFC701D4DE74D380E0CA
:1015700029960FB6F894DEBF0FBECDBFDF91CF9195
:101580000F91FF90EF90DF90CF90BF90AF900895B4
:101590000F931F93CF93DF93EC018A019E8D8F8D64
:1015A000981710F02230D1F4422FCE0144DE8AA1E8
:1015B0008F3F79F48B89882379F0CE014396F1D45B
:1015C000882351F00115110539F081E0F80180837D
:1015D00006C08AA18F5F8AA381E001C080E0DF910D
:1015E000CF911F910F910895AF92BF92CF92DF924A
:1015F000EF92FF920F93CF93DF93CDB7DEB729978A
:101600000FB6F894DEBF0FBECDBF7C016B012E83F9
:101610003F834887598720E05C0183E1A80EB11C15
:101620000FB6F8940F92F701868D882361F1A6809A
:10163000B780B601C70154DEF701011116C0868DCF
:101640008150868F80819181892B21F4E5D5F70126
:1016500093838283F7018085882389F0C7010896E8
:10166000A0D4813061F44BD70AC0B782A6828389A7
:10167000882329F0C701439694D48111F4CF0F90A9
:101680000FBE81E058C08E819F81A885B985892BC6
:101690008A2B8B2B19F40F900FBE4CC0211103C065
:1016A000CE010196BBD40F900FBEF7D10FB6F894C0
:1016B0000F92F70181A18F3F09F411A2F70182A1D6
:1016C0008F3F09F412A20F900FBEBE016A5F7F4FD9
:1016D000CE010196B4D481112AC00FB6F8940F92AE
:1016E000F701868D0F900FBE81111DC0F70180811B
:1016F0009181892B49F40FB6F8940F92F7018281FA
:101700009381F6D40F900FBE4E815F8168857985F5
:10171000C50123D4C701FEDD9ED2882311F021E04C
:101720007FCFEDD6FCCFC701F5DD95D2F8CFC7014D
:10173000F1DD91D280E029960FB6F894DEBF0FBE9E
:10174000CDBFDF91CF910F91FF90EF90DF90CF90C1
:10175000BF90AF900895E091DB02F091DC028081B0
:10176000811104C08FEF9FEFDC010EC0E091DB021E
:10177000F091DC020780F085E02D0084F185E02DFA
:1017800082819381A481B5818093B3029093B40246
:10179000A093B502B093B6020895CF92DF92EF9274
:1017A000FF926B017C01E0916103F091620362831F
:1017B0007383848395838091BD029091BE02A09132
:1017C000BF02B091C0026091610370916203C816BC
:1017D000D906EA06FB0658F48091D9029091DA0204
:1017E0006E5F7F4FFF90EF90DF90CF9072C7809138
:1017F000DB029091DC026E5F7F4F6BD78091B3026A
:101800009091B402A091B502B091B602C816D90663
:10181000EA06FB0640F4C092B302D092B402E09212
:10182000B502F092B602FF90EF90DF90CF9008954E
:101830005F926F927F928F929F92AF92BF92CF9260
:10184000DF92EF92FF920F931F93CF93DF934C01A0
:10185000162F572E5A013901C114D10431F4CA018F
:10186000EDD46C01009709F4C7C08CE290E0E6D497
:10187000EC01009761F0DC8ECB8E21E0A21AB1085A
:10188000AC0CBD1CE12FF52D80E090E007C0C60137
:1018900065D5B2C001968830910561F0BF014191D4
:1018A0009E01280F391FD9015D964C93DB012C91C5
:1018B0002111F0CF1CA2102F0A3008F019E01A8F66
:1018C0001DA31EA26E01B2E0CB0ED11CC601DCD658
:1018D000CE010E96D9D6DB87CA878AE090E0A0E0D9
:1018E000B0E0811B9109A109B1098E879F87A88B60
:1018F000B98BDF8BCE8B1FA218A619A61AA61BA622
:10190000A301B401C50154D599838883E114F1047E
:1019100019F0F701D183C0830FB6F8940F9280912C
:10192000C1028F5F8093C102809161039091620335
:10193000892B79F5D0936203C09361038091C10232
:101940008130B1F583EFE82E82E0F82EC7018BD607
:10195000FBE0EF0EF11C21E6E21623E0F206B1F700
:1019600088EE92E080D68DED92E07DD68EEC92E00E
:101970007AD683EC92E077D688EE92E09093DC0200
:101980008093DB028DED92E09093DA028093D9028E
:101990000FC08091BB0281110BC0E0916103F091F7
:1019A0006203828D081720F0D0936203C093610315
:1019B0008091B7028F5F8093B7028A8D9091BC02AD
:1019C000981710F48093BC02ABE08A9FC0011124E9
:1019D000B6018D509D4F5CD60F900FBE8091BB021B
:1019E000882341F0E0916103F0916203828D8017BA
:1019F00008F485D581E001C08FEFDF91CF911F9171
:101A00000F91FF90EF90DF90CF90BF90AF909F909D
:101A10008F907F906F905F900895AF92BF92CF921A
:101A2000DF92EF92FF920F93A12CB12CC12CD12CFD
:101A3000E12CF12C00E020E030E045E550E06CECDA
:101A400071E08FE39FE0F4DE8130F9F4F8948FEFDA
:101A50009FEFDC018093B3029093B402A093B50290
:101A6000B093B60281E08093BB021092BD02109247
:101A7000BE021092BF021092C0020F91FF90EF9031
:101A8000DF90CF90BF90AF90FFC40F91FF90EF9089
:101A9000DF90CF90BF90AF9008958091B2028F5F9A
:101AA0008093B20208950FB6F8940F926091BD0230
:101AB0007091BE028091BF029091C0020F900FBE44
:101AC0000895AF92BF92CF92DF92EF92FF920F9361
:101AD0001F93CF93DF938091B2028111A4C08091B4
:101AE000BD029091BE02A091BF02B091C0020196CA
:101AF000A11DB11D8093BD029093BE02A093BF02B1
:101B0000B093C002C090BD02D090BE02E090BF0270
:101B1000F090C002C114D104E104F104B1F4809149
:101B2000DB029091DC022091D9023091DA023093ED
:101B3000DC022093DB029093DA028093D902809139
:101B4000B8028F5F8093B80206DE8091B302909155
:101B5000B402A091B502B091B602B12CC816D90654
:101B6000EA06FB0608F44EC09BE0A92EE091DB02DA
:101B7000F091DC028081811104C04FEF5FEFBA0168
:101B800012C0E091DB02F091DC020780F085E02DCD
:101B9000C085D1854A815B816C817D81C416D50663
:101BA000E606F70648F44093B3025093B4026093FC
:101BB000B5027093B60226C08E010E5F1F4FC8019A
:101BC000CCD5888D998D892B19F0CE010E96C5D56F
:101BD0002A8D8091BC02821710F42093BC02A29E31
:101BE000C0011124B8018D509D4F52D5E091610381
:101BF000F09162039A8D828D981708F4B7CFBB24B9
:101C0000B394B4CFE0916103F0916203E28D8BE075
:101C1000E89FF0011124ED50FD4F8081823048F0A3
:101C2000BB24B39406C08091BA028F5F8093BA023E
:101C3000B12C8091B902882311F0BB24B3948B2D71
:101C4000DF91CF911F910F91FF90EF90DF90CF9098
:101C5000BF90AF900895EF92FF920F931F93CF9391
:101C6000DF930FB6F8940F928091B2028150809367
:101C7000B2028091B202882311F080E04EC08091C0
:101C8000C1028823D1F32BE0F22EEE24E39480915D
:101C9000CE02882339F1E091D502F091D602C085B9
:101CA000D185CE010E9659D58E010E5F1F4FC8010A
:101CB00054D58A8D9091BC02981710F48093BC0281
:101CC000F89EC0011124B8018D509D4FE1D4E091E0
:101CD0006103F09162039A8D828D9817C0F2E092B1
:101CE000B902D5CF8091BA02811108C08091B902A2
:101CF000813009F0C2CF03D481E00FC0C1E08091F0
:101D0000BA02882399F3DDDE8111C093B902809174
:101D1000BA0281508093BA02F2CF0F900FBEDF91CA
:101D2000CF911F910F91FF90EF900895AF92BF92C6
:101D3000CF92DF92EF92FF920F931F93CF93DF9397
:101D400000D000D0CDB7DEB75C0149835A836B83E6
:101D50007C83A3DEC090BD02D090BE02E090BF02A3
:101D6000F090C002F5010081118122813381498107
:101D70005A816B817C81400F511F621F731FC016F7
:101D8000D106E206F30638F44017510762077307DD
:101D900068F481E006C081E04017510762077307CD
:101DA00030F0C416D506E606F70608F080E0F50127
:101DB0004083518362837383882389F08091610318
:101DC00090916203029649835A836B837C83C5D4C6
:101DD00049815A816B817C81CB01BA01DEDC3BDF1A
:101DE000811101C08CD30F900F900F900F90DF9155
:101DF000CF911F910F91FF90EF90DF90CF90BF9008
:101E0000AF900895CF92DF92EF92FF92CF93DF933E
:101E100000D000D0CDB7DEB7611571058105910501
:101E200011F46DD321C069837A838B839C8335DE63
:101E3000C090BD02D090BE02E090BF02F090C00200
:101E400069817A818B819C81C60ED71EE81EF91E9E
:101E5000809161039091620302967FD4C701B6011D
:101E60009CDCF9DE8823E9F20F900F900F900F9021
:101E7000DF91CF91FF90EF90DF90CF900895809108
:101E8000C202882321F109DEC091C302E4DECC2323
:101E9000B1F30FB6F8940F92E091CA02F091CB0221
:101EA000C085D185CE01029658D48091C10281505F
:101EB0008093C1028091C20281508093C2020F9030
:101EC0000FBE8B8D9C8D4AD2CE0148D2D8CF809147
:101ED000F3028230A0F213D3D2CF8091B2028823D2
:101EE00021F081E08093B90208951092B9029BE03D
:101EF000E091BC029E9FF0011124ED50FD4F8081C6
:101F0000811106C08091BC0281508093BC02F0CF49
:101F1000E091BC028BE0E89FF0011124ED50FD4FF1
:101F2000A181B28114960D90BC91A02DB283A183A2
:101F3000CF010396A817B90731F414968D919C919F
:101F40001597928381830180F281E02D80859185B0
:101F500090936203809361030895CF92DF92EF9292
:101F6000FF926A017B016091610370916203625F7D
:101F70007F4FAFD380916103909162030296EDD3BE
:101F80006091BD027091BE028091BF029091C0022B
:101F90006C0D7D1D8E1D9F1DFF90EF90DF90CF90EB
:101FA000FCCB0F931F93CF93DF93DC011796ED913A
:101FB000FC911897C085D1858E01025F1F4FC80123
:101FC000CCD38091B202811113C00C501109C80109
:101FD000C4D38A8D9091BC02981710F48093BC02F0
:101FE000BBE08B9FC0011124B8018D509D4F03C0F1
:101FF000B8018EEC92E04CD3E0916103F091620362
:102000009A8D828D891720F481E08093B90201C0F6
:1020100080E0DF91CF911F910F9108952091B80238
:10202000FC0120834091BD025091BE026091BF022D
:102030007091C002418352836383748308958F92A9
:102040009F92AF92BF92CF92DF92EF92FF920F9347
:102050001F93CF93DF93FB010FB6F8940F9200917B
:10206000BD021091BE022091BF023091C002B0911A
:10207000B802EC01A88149815A816B817C81BA1731
:1020800029F00417150726073707F0F4C080D18020
:10209000E280F38048015901841A950AA60AB70A1A
:1020A0008C149D04AE04BF0478F4401B510B620BEA
:1020B000730B4C0D5D1D6E1D7F1D4083518362832C
:1020C0007383ACDF80E001C081E00F900FBEDF9131
:1020D000CF911F910F91FF90EF90DF90CF90BF9025
:1020E000AF909F908F90089581E08093B9020895FA
:1020F0000F931F93CF93DF93EC01009709F44EC029
:102100008A8DE0916103F0916203928D891708F046
:1021100045C04E855F856889798977FD11C0E0915A
:102120006103F0916203928D4AE050E060E070E05C
:10213000491B5109610971094E875F87688B798B4B
:102140002BE0829FC00111248D509D4F2C853D8531
:1021500028173907E9F48E010E5F1F4FC801FDD221
:10216000E0916103F0916203828D8A8F9091BC02AD
:10217000981710F48093BC022BE0829FC0011124B9
:10218000B8018D509D4FDF91CF911F910F9180C26B
:10219000E0916103F0916203828D8A8FDF91CF918C
:1021A0001F910F9108950F931F93CF93DF93EC012D
:1021B000009711F480E02BC08EA181508EA32A8D50
:1021C0009DA12917B9F38111F5CF8E010E5F1F4F25
:1021D000C801C3D28DA18A8F4AE050E060E070E070
:1021E000481B5109610971094E875F87688B798B9C
:1021F0009091BC02981710F48093BC022BE0829F50
:10220000C0011124B8018D509D4F42D281E0DF9171
:10221000CF911F910F910895809161039091620376
:10222000892B39F0E0916103F091620386A18F5F01
:1022300086A3809161039091620308950F931F9389
:10224000CF93DF93EC0129DC80916303811121C0DE
:102250008DE693E0909369038093680310926B037B
:1022600010926A038BED95E0909367038093660369
:1022700010926503109264039093700380936F0330
:1022800084E693E090936E0380936D0381E08093E6
:102290006303209709F02496CE0101978A3D95406B
:1022A00008F053C0E0916803F0916903A8E6B3E039
:1022B000828193818C179D0728F023E0E436F20792
:1022C00049F443C02081318121153105B1F3DF018B
:1022D000F901EECF0D911C9111970C5F1F4F2081DA
:1022E00031812D933C938C1B9D0B8930910500F11E
:1022F000DF01AC0FBD1F13969C938E931297D3836F
:10230000C28312962D913C91139768E673E0EB011E
:1023100088819981EC014A815B814217530710F44F
:10232000BC01F5CF11969C938E93EB01B983A883E2
:10233000809110019091110122813381821B930BB6
:10234000909311018093100102C000E010E083DC43
:10235000C801DF91CF911F910F910895CF93DF9323
:10236000009719F1EC01249798DB2A813B81E8E67C
:10237000F3E0A081B18112968D919C911397821701
:10238000930710F4FD01F5CFB983A883D183C083EF
:102390008091100190911101820F931F9093110170
:1023A00080931001DF91CF9156CCDF91CF910895AA
:1023B00031E1FC013083319722E220833197A3E39E
:1023C000A083319760833197708331971082319762
:1023D00060E8608331971082319762E060833197C3
:1023E00063E06083319764E06083319765E06083E8
:1023F000319766E06083319767E06083319768E0EA
:102400006083319769E06083319760E16083319741
:102410003083319732E13083319733E13083319724
:1024200034E13083319735E13083319736E13083C1
:10243000319737E13083319738E13083319739E193
:102440003083319730E23083319731E230833197F6
:102450002083319723E22083319740833197508343
:10246000319726E22083319727E22083319728E2B3
:102470002083319729E22083319720E3208331970D
:1024800021E320838697089589E08093890083EC77
:10249000809388008BE080938100EFE6F0E08081FC
:1024A00082608083A0916103B0916203CD91CDBF22
:1024B000DD91DEBFFF91EF91DF91CF91BF91AF91A1
:1024C0009F918F917F916F915F914F913F912F914C
:1024D0001F910F91FF90EF90DF90CF90BF90AF9042
:1024E0009F908F907F906F905F904F903F902F9034
:1024F0001F900F900FBE0F90089581E008950F92E6
:102500000FB6F8940F921F9211242F923F924F9280
:102510005F926F927F928F929F92AF92BF92CF9273
:10252000DF92EF92FF920F931F932F933F934F935E
:102530005F936F937F938F939F93AF93BF93CF934B
:10254000DF93EF93FF93A0916103B09162030DB607
:102550000D920EB60D92C1DCA0916103B0916203A1
:10256000CD91CDBFDD91DEBFFF91EF91DF91CF9196
:10257000BF91AF919F918F917F916F915F914F919B
:102580003F912F911F910F91FF90EF90DF90CF908F
:10259000BF90AF909F908F907F906F905F904F9083
:1025A0003F902F901F900F900FBE0F9008950F92A5
:1025B0000FB6F8940F921F9211242F923F924F92D0
:1025C0005F926F927F928F929F92AF92BF92CF92C3
:1025D000DF92EF92FF920F931F932F933F934F93AE
:1025E0005F936F937F938F939F93AF93BF93CF939B
:1025F000DF93EF93FF93A0916103B09162030DB657
:102600000D920EB60D925DDA811167DCA091610327
:10261000B0916203CD91CDBFDD91DEBFFF91EF910F
:10262000DF91CF91BF91AF919F918F917F916F91EA
:102630005F914F913F912F911F910F91FF90EF90DC
:10264000DF90CF90BF90AF909F908F907F906F90D2
:102650005F904F903F902F901F900F900FBE0F9064
:102660000895A5DF1895FC010396928381834FEFAF
:102670005FEFBA01438354836583768390878783B2
:102680009287818710820895FC011386128608952F
:10269000CF93DF939C01FB01DC011196CD91DC917E
:1026A0001297D583C4838E819F81978386838E8181
:1026B0009F81DC0115967C936E9314977F836E83C4
:1026C00033872287F90180818F5F8083DF91CF91EB
:1026D0000895EF92FF920F931F93CF93DF937C01A6
:1026E000FB0140815181628173814F3F8FEF580719
:1026F0006807780721F4E701A985BA8512C0D701D8
:10270000139614968D919C911597EC01088119816F
:102710002A813B81401751076207730710F0DC01E3
:10272000F0CF14968D919C91159795838483EC013D
:10273000FF83EE83B783A6831596FC93EE931497DD
:10274000F386E286F70180818F5F8083DF91CF91EE
:102750001F910F91FF90EF900895CF93DF93FC01AD
:10276000A285B3858481958126813781EC013F83E1
:102770002E83C681D7819D838C8311968D919C91E8
:1027800012978E179F0721F41296DC93CE93119720
:10279000138612868C9181508C93DF91CF9108958E
:1027A000AA1BBB1B51E107C0AA1FBB1FA617B70777
:1027B00010F0A61BB70B881F991F5A95A9F7809593
:1027C0009095BC01CD010895A1E21A2EAA1BBB1B56
:1027D000FD010DC0AA1FBB1FEE1FFF1FA217B307ED
:1027E000E407F50720F0A21BB30BE40BF50B661F03
:1027F000771F881F991F1A9469F7609570958095C7
:1028000090959B01AC01BD01CF010895EE0FFF1F14
:102810000590F491E02D0994FB01DC0102C00190C8
:102820000D9241505040D8F70895AEE0B0E0EAE193
:10283000F4E191C20D891E8986E08C831A83098395
:102840008FEF9FE79E838D83AE01475E5F4F6F8959
:10285000788DCE01019608D0EF81F885E00FF11F49
:1028600010822E96E4E093C2ACE0B0E0E9E3F4E13C
:1028700064C27C016B018A01FC011782168283818C
:1028800081FFB0C1CE0101964C01F7019381F601A1
:1028900093FD859193FF81916F01882309F49EC177
:1028A000853239F493FD859193FF81916F018532D3
:1028B00021F4B70190E0B1D1E8CF512C312C20E0C8
:1028C0002032A0F48B3269F030F4803259F0833238
:1028D00069F420612CC08D3239F0803339F42160E5
:1028E00026C02260246023C0286021C027FD27C0A5
:1028F00030ED380F3A3078F426FF06C0FAE05F9EDC
:10290000300D1124532E13C08AE0389E300D11244F
:10291000332E20620CC08E3221F426FD5FC120646C
:1029200006C08C3611F4206802C0883641F4F601E6
:1029300093FD859193FF81916F018111C1CF982FF4
:102940009F7D9554933028F40C5F1F4FFFE3F9836C
:102950000DC0833631F0833771F0833509F057C0ED
:1029600021C0F801808189830E5F1F4F4424439466
:10297000512C540114C03801F2E06F0E711CF801A3
:10298000A080B18026FF03C0652D70E002C06FEF0C
:102990007FEFC5012C8736D12C0183012C852F7741
:1029A000222E16C03801F2E06F0E711CF801A080D3
:1029B000B18026FF03C0652D70E002C06FEF7FEF8E
:1029C000C5012C8714D12C012C852068222E83016F
:1029D00023FC19C0832D90E048165906A0F4B701D6
:1029E00080E290E01AD13A94F5CFF50127FC859169
:1029F00027FE81915F01B70190E00FD131103A9429
:102A0000F1E04F1A51084114510479F7DEC08436C1
:102A100011F0893631F5F80127FF07C06081718117
:102A2000828193810C5F1F4F08C06081718188276C
:102A300077FD8095982F0E5F1F4F2F76B22E97FF50
:102A400009C090958095709561957F4F8F4F9F4FEE
:102A50002068B22E2AE030E0A40111D1A82EA818D7
:102A600043C0853729F42F7EB22E2AE030E025C0FE
:102A7000F22FF97FBF2E8F36C1F018F4883579F028
:102A8000ADC0803719F0883721F0A8C02F2F206102
:102A9000B22EB4FE0DC08B2D8460B82E09C024FF69
:102AA0000AC09F2F9660B92E06C028E030E005C00E
:102AB00020E130E002C020E132E0F801B7FE07C0BB
:102AC00060817181828193810C5F1F4F06C060819C
:102AD000718180E090E00E5F1F4FA401D0D0A82E3E
:102AE000A818FB2DFF77BF2EB6FE0BC02B2D2E7F17
:102AF000A51450F4B4FE0AC0B2FC08C02B2D2E7EE3
:102B000005C07A2C2B2D03C07A2C01C0752C24FF14
:102B10000DC0FE01EA0DF11D8081803311F4297E84
:102B200009C022FF06C07394739404C0822F867874
:102B300009F0739423FD12C020FF06C05A2C7314B1
:102B400018F4530C5718732C731460F4B70180E217
:102B500090E02C8762D073942C85F6CF731410F418
:102B6000371801C0312C24FF11C0B70180E390E079
:102B70002C8753D02C8522FF16C021FF03C088E587
:102B800090E002C088E790E0B7010CC0822F867801
:102B900051F021FD02C080E201C08BE227FD8DE2F1
:102BA000B70190E03AD0A51430F4B70180E390E08B
:102BB00034D05A94F8CFAA94F401EA0DF11D808123
:102BC000B70190E02AD0A110F6CF332009F45DCEF2
:102BD000B70180E290E021D03A94F7CFF7018681E7
:102BE000978102C08FEF9FEF2C96E2E1C2C0FC01FB
:102BF0000590615070400110D8F7809590958E0F28
:102C00009F1F0895FC016150704001900110D8F79A
:102C1000809590958E0F9F1F08950F931F93CF93CC
:102C2000DF93182F092FEB018B8181FD03C08FEFFC
:102C30009FEF20C082FF10C04E815F812C813D81BB
:102C4000421753077CF4E881F9819F012F5F3F4FC2
:102C500039832883108306C0E885F985812F09957B
:102C6000892B29F72E813F812F5F3F4F3F832E8392
:102C7000812F902FDF91CF911F910F910895FA012D
:102C8000AA27283051F1203181F1E8946F936E7FAB
:102C90006E5F7F4F8F4F9F4FAF4FB1E03ED0B4E09C
:102CA0003CD0670F781F891F9A1FA11D680F791FDD
:102CB0008A1F911DA11D6A0F711D811D911DA11DEE
:102CC00020D009F468943F912AE0269F11243019FE
:102CD000305D3193DEF6CF010895462F4770405D99
:102CE0004193B3E00FD0C9F7F6CF462F4F70405D48
:102CF0004A3318F0495D31FD4052419302D0A9F7A3
:102D0000EACFB4E0A6959795879577956795BA959C
:102D1000C9F700976105710508959B01AC010A2E62
:102D200006945795479537952795BA95C9F7620F39
:102D3000731F841F951FA01D08952F923F924F92DD
:102D40005F926F927F928F929F92AF92BF92CF923B
:102D5000DF92EF92FF920F931F93CF93DF93CDB744
:102D6000DEB7CA1BDB0B0FB6F894DEBF0FBECDBFBC
:102D700009942A88398848885F846E847D848C848D
:102D80009B84AA84B984C884DF80EE80FD800C8196
:102D90001B81AA81B981CE0FD11D0FB6F894DEBF79
:0C2DA0000FBECDBFED010895F894FFCFE9
:102DAC0000004809800001000000FF020402040139
:102DBC00DB05000000000301B2028700A0009200B6
:102DCC00E200000000006C020D0A006E616E0069EA
:102DDC006E66006F7666002E005350443A202575BF
:102DEC000A4445533A2025750A4449533A2025751F
:102DFC000A0042454E494E470073616D706C655F29
:102E0C00706F74656E74696F6D6574657200737044
:102E1C006565645F636865636B696E6720616E648A
:102E2C00206175746F5F6272616B696E67006D6FA4
:102E3C00746F725F636F6E74726F6C6C6572004C42
:102E4C0045445F426C696E6B6572006D65737361AE
:102E5C0067655F7472616E736D6974006D65737311
:102E6C006167655F726563656976650049444C45C9
:022E7C00000054
:00000001FF
