:100000005EC0000085C40000AAC400007FC00000DC
:100010007DC000007BC0000079C00000FDC300006F
:1000200075C0000073C0000071C000000C947B0A12
:100030006DC000006BC0000069C0000067C0000018
:10004000C0C4000063C00000A4C10000D4C100000F
:100050005DC000005BC0000059C0000057C0000038
:1000600055C0000053C0000002000000080002015B
:10007000000003040700000000000000000102046B
:10008000081020408001020408102001020408101A
:100090002004040404040404040202020202020311
:1000A000030303030300000000250028002B0000C9
:1000B000000000240027002A00002902A3021124C6
:1000C0001FBECFEFD8E0DEBFCDBF11E0A0E0B1E0B2
:1000D000E6E4F8E202C005900D92A63AB107D9F71E
:1000E00029E0A6EAB1E001C01D92A330B207E1F712
:1000F00010E0CEEBD0E004C02297FE010E94141461
:10010000CA3BD107C9F753D40C94211479CFFC0111
:10011000818D228D90E0805C9F4F821B91098F73AF
:1001200099270895FC01918D828D981731F0828D69
:10013000E80FF11D858D90E008958FEF9FEF0895F2
:10014000FC01918D828D981761F0828DDF01A80FDF
:10015000B11D5D968C91928D9F5F9F73928F90E001
:1001600008958FEF9FEF089580E292E0892B41F090
:1001700080E090E0892B21F063D181110C94000084
:100180000895FC01848DDF01A80FB11DA35ABF4F54
:100190002C91848D90E001968F739927848FA68986
:1001A000B7892C93A089B1898C9180648C93938DAD
:1001B000848D981306C00288F389E02D80818F7D9D
:1001C00080830895CF93DF93EC01888D8823C1F05D
:1001D000EA89FB89808185FD05C0A889B9898C9150
:1001E00086FD0EC00FB607FCF5CF808185FFF2CFEC
:1001F000A889B9898C9185FFEDCFCE01C2DFE8CF08
:10020000DF91CF910895CF92DF92FF920F931F93CA
:10021000CF93DF931F92CDB7DEB76C0181E0D6019B
:1002200058968C9358975B969C915B975C968C91B3
:100230005C97981307C05096ED91FC91519780817F
:1002400085FD2DC0F601038D10E00F5F1F4F0F736A
:100250001127F02EF601848DF81210C00FB607FC9E
:10026000F9CFD6015096ED91FC915197808185FF91
:10027000F1CFC601698385DF6981ECCF838DE80FFB
:10028000F11DE35AFF4F6083D6015B960C935B9799
:100290005296ED91FC915397808180620CC0D601FB
:1002A0005696ED91FC91579760835096ED91FC9195
:1002B000519780818064808381E090E00F90DF918E
:1002C000CF911F910F91FF90DF90CF900895BF9233
:1002D000CF92DF92EF92FF92CF93DF93EC016A010E
:1002E0007B01B22EE889F98982E08083411581EE95
:1002F000580761057105A1F060E079E08DE390E0B9
:10030000A70196010E94F0132150310941095109BA
:100310005695479537952795211580E1380798F030
:10032000E889F989108260E874E88EE190E0A7011D
:1003300096010E94F0132150310941095109569547
:10034000479537952795EC85FD853083EE85FF85AC
:100350002083188EEC89FD89B082EA89FB8980812F
:1003600080618083EA89FB89808188608083EA8953
:10037000FB89808180688083EA89FB8980818F7D09
:100380008083DF91CF91FF90EF90DF90CF90BF906F
:1003900008951F920F920FB60F9211242F938F93EF
:1003A0009F93EF93FF93E091B601F091B7018081A5
:1003B000E091BC01F091BD0182FD12C0908180915D
:1003C000BF018F5F8F732091C001821751F0E091C0
:1003D000BF01F0E0EA55FE4F958F8093BF0101C049
:1003E0008081FF91EF919F918F912F910F900FBE80
:1003F0000F901F9018951F920F920FB60F92112415
:100400002F933F934F935F936F937F938F939F931C
:10041000AF93BF93EF93FF9386EA91E0B2DEFF9133
:10042000EF91BF91AF919F918F917F916F915F916C
:100430004F913F912F910F900FBE0F901F901895E5
:1004400086EA91E064DE21E0892B09F420E0822F26
:1004500008951092A9011092A80188EE93E0A0E0FF
:10046000B0E08093AA019093AB01A093AC01B0934C
:10047000AD0186E191E09093A7018093A60185EC00
:1004800090E09093B3018093B20184EC90E090935C
:10049000B5018093B40180EC90E09093B701809314
:1004A000B60181EC90E09093B9018093B80182ECA1
:1004B00090E09093BB018093BA0186EC90E090931A
:1004C000BD018093BC011092BF011092C001109237
:1004D000C1011092C2010895AF92BF92CF92DF92F4
:1004E000EF92FF920F931F93CF93DF936C017B01E9
:1004F000C0E0D0E000E010E0F601EC0FFD1F4AE0A4
:1005000050E06281C7014FD15C016EE2C70169D042
:100510008A0D9B1D080F191F2196C330D10561F765
:100520004AE050E0F6016581C7013DD1800F911F7F
:10053000DF91CF911F910F91FF90EF90DF90CF90BF
:10054000BF90AF90089586E291E09093440280932B
:1005500043021092450210924602109247021092F6
:1005600048020895CF92DF92EF92FF920F931F936C
:10057000CF93DF937C016A01EB0100E010E00C15E2
:100580001D0571F06991D701ED91FC910190F08109
:10059000E02DC7010995892B19F00F5F1F4FEFCF91
:1005A000C801DF91CF911F910F91FF90EF90DF90E5
:1005B000CF9008956115710581F0DB010D90002049
:1005C000E9F7AD0141505109461B570BDC01ED9194
:1005D000FC910280F381E02D099480E090E0089581
:1005E000E9CFDC01ED91FC910190F081E02D0994BF
:1005F00068E271E0DFCF0F931F93CF93DF93EC019D
:10060000D9DF8C01CE01F4DF800F911FDF91CF91F4
:100610001F910F9108958F929F92AF92BF92CF92A8
:10062000DF92EF92FF920F931F93CF93DF93CDB79B
:10063000DEB7A1970FB6F894DEBF0FBECDBF7C0129
:10064000C42EE52FCB01D22E19A221E02D1510F0DA
:100650002AE0D22E8E010F5D1F4F8D2C912CA12CE4
:10066000B12C6C2D7E2FA50194010E94F0138C2DCE
:10067000D29E80191124015011098A3010F4805D36
:1006800001C0895CF80180832115310541055105C0
:1006900021F0C22EE32FCA01E4CFB801C7018ADFDF
:1006A000A1960FB6F894DEBF0FBECDBFDF91CF91FC
:1006B0001F910F91FF90EF90DF90CF90BF90AF9080
:1006C0009F908F900895CF92DF92EF92FF920F93B9
:1006D0001F93CF93DF93EC016A017B012115310554
:1006E00079F4E881F9810190F081E02D642FDF91A8
:1006F000CF911F910F91FF90EF90DF90CF900994D1
:100700002A303105D9F477FF18C06DE26ADF8C0119
:1007100044275527BA014C195D096E097F092AE063
:10072000CE0179DF800F911FDF91CF911F910F9143
:10073000FF90EF90DF90CF9008952AE0B701A601D7
:10074000CE01DF91CF911F910F91FF90EF90DF903D
:10075000CF9061CF9A01AB01662757FD6095762F48
:10076000B2CF0F931F93CF93DF93EC019A01AB01AC
:10077000662757FD6095762FA6DF8C01CE0138DF06
:10078000800F911FDF91CF911F910F910895211537
:10079000310541F4DC01ED91FC910190F081E02DF7
:1007A000642F099438CF9A01462F50E060E070E042
:1007B000EECF813039F018F0823051F00895109268
:1007C0006E00089580916F008D7F80936F00089573
:1007D000809170008D7F8093700081E08093B000E5
:1007E0008091B100887F84608093B1001092B30043
:1007F0000895CF93C82F80910A018C1307C0E8E6B3
:10080000F0E084919FEF90930A0101C08FEFD1DF58
:1008100060E08C2FCF9142C21F920F920FB60F92C1
:1008200011242F933F934F935F936F937F938F93F5
:100830009F93AF93BF93EF93FF9380914C0290915E
:100840004D02A0914E02B0914F02892B8A2B8B2B27
:1008500051F190914902E0914A02F0914B0280815E
:100860008927808380914C0290914D02A0914E0285
:10087000B0914F02181619061A061B06BCF4809197
:100880004C0290914D02A0914E02B0914F020197FF
:10089000A109B10980934C0290934D02A0934E029E
:1008A000B0934F0203C080910A01A3DFFF91EF9143
:1008B000BF91AF919F918F917F916F915F914F9178
:1008C0003F912F910F900FBE0F901F901895089594
:1008D0008230E8F4E82FF0E0EE0FFF1FE55FFE4FF7
:1008E00071836083813041F0809169008C7F842B1B
:1008F00080936900E89A089580916900440F551F1C
:10090000440F551F837F842B80936900E99A0895D3
:100910001F920F920FB60F9211242F933F934F9374
:100920005F936F937F938F939F93AF93BF93EF9357
:10093000FF93E0910B01F0910C010995FF91EF916C
:10094000BF91AF919F918F917F916F915F914F91E7
:100950003F912F910F900FBE0F901F9018951F92EF
:100960000F920FB60F9211242F933F934F935F93E3
:100970006F937F938F939F93AF93BF93EF93FF9367
:10098000E0910D01F0910E010995FF91EF91BF915A
:10099000AF919F918F917F916F915F914F913F9117
:1009A0002F910F900FBE0F901F90189508955FD054
:1009B000FDDFBFD3C4EBD0E0FED32097E9F3D4DB57
:1009C000FBCF1F920F920FB60F9211242F933F93DC
:1009D0008F939F93AF93BF93809151029091520256
:1009E000A0915302B09154023091500223E0230FA2
:1009F0002D3720F40196A11DB11D05C026E8230F57
:100A00000296A11DB11D2093500280935102909334
:100A10005202A0935302B0935402809155029091D8
:100A20005602A0915702B09158020196A11DB11D26
:100A30008093550290935602A0935702B0935802A8
:100A4000BF91AF919F918F913F912F910F900FBECA
:100A50000F901F9018952FB7F894609151027091E4
:100A6000520280915302909154022FBF08957894BE
:100A700084B5826084BD84B5816084BD85B58260A3
:100A800085BD85B5816085BDEEE6F0E08081816041
:100A90008083E1E8F0E01082808182608083808141
:100AA00081608083E0E8F0E0808181608083E1EB19
:100AB000F0E0808184608083E0EBF0E08081816001
:100AC0008083EAE7F0E080818460808380818260B7
:100AD00080838081816080838081806880831092A0
:100AE000C10008958E3008F08E50877020910F015C
:100AF00090E4299F90011124822B80937C008091A7
:100B00007A00806480937A0080917A0086FDFCCF21
:100B1000809178002091790090E0922B08951F93A6
:100B2000CF93DF93182FEB0161E07FD0209711F472
:100B300060E004C0CF3FD10531F461E0812FDF9147
:100B4000CF911F91ABC0E12FF0E0E759FF4FE49147
:100B5000E330F9F048F4E130B9F0E230A1F584B5C2
:100B6000806284BDC8BD34C0E730E9F0E83019F1D7
:100B7000E43049F580918000806280938000D093BA
:100B80008B00C0938A0024C084B5806884BDC7BD33
:100B90001FC080918000806880938000D09389007E
:100BA000C093880015C08091B00080688093B00029
:100BB000C093B3000DC08091B00080628093B000FC
:100BC000C093B40005C0C038D1050CF0B6CFB0CF8B
:100BD000DF91CF911F910895833081F028F4813007
:100BE00099F08230A1F008958730A9F08830B9F0EB
:100BF0008430D1F4809180008F7D03C0809180008B
:100C00008F7780938000089584B58F7702C084B574
:100C10008F7D84BD08958091B0008F7703C080914F
:100C2000B0008F7D8093B0000895CF93DF9390E064
:100C3000FC01E358FF4F2491FC01EF56FF4F8491D4
:100C4000882349F190E0880F991FFC01E155FF4F7F
:100C5000A591B4918B559F4FFC01C591D4919FB73D
:100C6000611108C0F8948C91209582238C9388811F
:100C700082230AC0623051F4F8948C91322F30955F
:100C800083238C938881822B888304C0F8948C9171
:100C9000822B8C939FBFDF91CF9108950F931F9369
:100CA000CF93DF931F92CDB7DEB7282F30E0F90145
:100CB000E759FF4F8491F901E358FF4F1491F9016F
:100CC000EF56FF4F04910023C1F0882319F0698388
:100CD00083DF6981E02FF0E0EE0FFF1FEB55FF4F40
:100CE000A591B4919FB7F8948C91611103C01095B0
:100CF000812301C0812B8C939FBF0F90DF91CF91F7
:100D00001F910F91089561E080916902811101C0E6
:100D100060E086E0C3DF61E080916902823008F420
:100D200060E087E0BBDF61E080916902833008F416
:100D300060E088E0B3CFCF93DF9300D000D0CDB791
:100D4000DEB719821A821B821C820E94B10E69834F
:100D50007A838B839C8361E089E0A0DF48EE53E0D7
:100D600060E070E0CE0101960E94FD0F60E089E036
:100D700095DF0F900F900F900F90DF91CF91089516
:100D800019E1C4E0D0E08091690290E00196189FDB
:100D9000B001199F700D11248AE0C1DE80916902B3
:100DA0009E01281B31090AE0029FB001039F700DCC
:100DB0001124882777FD8095982F0E94691060E0A4
:100DC00070E08AE0ACDE809169029E01281B310947
:100DD000029FB001039F700D1124882777FD809535
:100DE000982F0E946910CFCFCF93DF9300D000D00F
:100DF00000D0CDB7DEB719821A821B821C82809187
:100E00006A0220916802309169024AE0849FC00121
:100E10001124830F911D34E6239F800D911D112411
:100E20009E838D8300E020E030E0A901BE016B5F6E
:100E30007F4F80915C0290915D0271D448EE53E047
:100E400060E070E0CE0101960E94FD0FD8CFCF93F5
:100E5000DF9300D000D0CDB7DEB719821A821B8293
:100E60001C828AEDE82E87E0F82E85E03BDE97FFB6
:100E700002C081509F4F90936802F0926C02E09202
:100E80006B0200E02FEF3FEFA9016BE672E080916B
:100E90005A0290915B0243D444EF51E060E070E06D
:100EA000CE0101960E94FD0FE0CFCF93DF9300D0DB
:100EB000CDB7DEB700E02FEF3FEFA901BE016F5FB6
:100EC0007F4F80915A0290915B02ECD4813091F770
:100ED000E981FA810995EECFCF93DF9300D000D05E
:100EE00000D0CDB7DEB719821A821B821C829AE02D
:100EF000E92EF12C24E6C22ED12C00E02FEF3FEF9B
:100F0000A901BE016B5F7F4F80915C0290915D02F1
:100F1000C9D4813009F045C08D819E81B7010E94FE
:100F2000DC138C0169E371E086EA91E059DB4AE069
:100F300050E0B80186EA91E014DC8D819E81B70112
:100F40000E94DC13CB01B7010E94DC138C016FE31C
:100F500071E086EA91E044DB4AE050E0B80186EABD
:100F600091E0FFDB8D819E81B6010E94DC13CB01F5
:100F7000B7010E94DC138C0165E471E086EA91E020
:100F80002FDBB8016F5F7F4F4AE050E086EA91E0C7
:100F9000E1DB6BE471E086EA91E02DDB86EA91E02B
:100FA00027DB48EE53E060E070E0CE0101960E943E
:100FB000FD0FA3CF0F93CF93C091690290916A0266
:100FC00080916802981710F480916A0280936902F8
:100FD00083E896E090936C0280936B0200E02FEF21
:100FE0003FEFA9016BE672E080915A0290915B029B
:100FF00096D390916A0280916802891790F48C17B9
:1010000080F48BE996E090936C0280936B022FEF53
:101010003FEFA9016BE672E080915A0290915B026A
:101020007ED3CF910F91089580916A028330D0F4DE
:1010300080916A028F5F80936A028AED97E09093B5
:101040006C0280936B0221E049E552E06BE672E0AE
:1010500080915A0290915B02F9D3809159028130BC
:1010600009F497C108950F931F93F5DC88D687D6AE
:10107000009160021091610220916202309163023E
:1010800008531F4F2F4F3F4F0617170728073907E1
:1010900060F475D66093600270936102809362027F
:1010A000909363021F910F91BFCF1F910F910895ED
:1010B00080916A028823D1F080916A0281508093E6
:1010C0006A028AED97E090936C0280936B0221E0B4
:1010D00049E552E06BE672E080915A0290915B0222
:1010E000B5D380915902813009F453C108950F930B
:1010F0001F93B1DC00916402109165022091660299
:101100003091670208531F4F2F4F3F4F06171707A5
:101110002807390758F4609364027093650280933E
:101120006602909367021F910F91C2CF1F910F919A
:1011300008950F9361E086E078DD61E087E075DD7A
:1011400061E088E072DD61E089E06FDD43E050E05E
:1011500063E378E081E0BCDB43E050E067E778E000
:1011600080E0B6DB26E040E052EC61E070E086EA29
:1011700091E0ADD840E062E083E09ED290935D02C2
:1011800080935C0240E068E08FE096D290935B022F
:1011900080935A0243E060E081E08ED290935F0238
:1011A00080935E0200E020E030E0A90160E070E0A2
:1011B000B6D20F910895AF92BF92CF92DF92EF9285
:1011C000FF920F93A12CB12CC12CD12CE12CF12C2E
:1011D00005E020E030E040E550E06DE471E087E2BA
:1011E00097E084D404E020E030E040E550E062E69F
:1011F00071E085E597E07AD403E020E030E040EA52
:1012000050E064E771E084EF96E070D402E020E003
:1012100030E040EA50E06EE771E08CE697E066D49B
:1012200001E020E030E040E550E06BE871E080EC68
:1012300096E05CD40F91FF90EF90DF90CF90BF903D
:10124000AF9049C531E1FC013083319722E2208320
:101250003197A3E3A08331976083319770833197EF
:101260001082319760E8608331971082319762E095
:101270006083319763E06083319764E060833197E6
:1012800065E06083319766E06083319767E0608353
:10129000319768E06083319769E06083319760E15E
:1012A000608331973083319732E13083319733E176
:1012B0003083319734E13083319735E13083319792
:1012C00036E13083319737E13083319738E130832D
:1012D000319739E13083319730E23083319731E211
:1012E000308331972083319723E2208331974083E5
:1012F00031975083319726E22083319727E220836C
:10130000319728E22083319729E22083319720E327
:101310002083319721E320838697089589E0809385
:10132000890083EC809388008BE080938100EFE656
:10133000F0E0808182608083A0911C03B0911D0346
:10134000CD91CDBFDD91DEBFFF91EF91DF91CF91C8
:10135000BF91AF919F918F917F916F915F914F91CD
:101360003F912F911F910F91FF90EF90DF90CF90C1
:10137000BF90AF909F908F907F906F905F904F90B5
:101380003F902F901F900F900FBE0F90089581E017
:1013900008950F920FB6F8940F921F9211242F9276
:1013A0003F924F925F926F927F928F929F92AF92F5
:1013B000BF92CF92DF92EF92FF920F931F932F93E2
:1013C0003F934F935F936F937F938F939F93AF93CD
:1013D000BF93CF93DF93EF93FF93A0911C03B09142
:1013E0001D030DB60D920EB60D92DED6A0911C0314
:1013F000B0911D03CD91CDBFDD91DEBFFF91EF9187
:10140000DF91CF91BF91AF919F918F917F916F911C
:101410005F914F913F912F911F910F91FF90EF900E
:10142000DF90CF90BF90AF909F908F907F906F9004
:101430005F904F903F902F901F900F900FBE0F9096
:1014400008950F920FB6F8940F921F9211242F92C5
:101450003F924F925F926F927F928F929F92AF9244
:10146000BF92CF92DF92EF92FF920F931F932F9331
:101470003F934F935F936F937F938F939F93AF931C
:10148000BF93CF93DF93EF93FF93A0911C03B09191
:101490001D030DB60D920EB60D927AD4811184D62D
:1014A000A0911C03B0911D03CD91CDBFDD91DEBF96
:1014B000FF91EF91DF91CF91BF91AF919F918F916C
:1014C0007F916F915F914F913F912F911F910F915C
:1014D000FF90EF90DF90CF90BF90AF909F908F9054
:1014E0007F906F905F904F903F902F901F900F9044
:1014F0000FBE0F900895A5DF18951F93CF93DF932C
:10150000EC01142F48A141110BC088819981892BCE
:1015100009F040C08A819B81ADD71B821A823BC0F3
:1015200050E0111115C08C819D810E94181428A1D2
:101530008C819D81820F911D9D838C832A813B81AB
:101540008217930738F1888199819D838C8322C00B
:101550008E819F810E94181428A130E03195219539
:1015600031098E819F81820F931F9F838E836881B3
:1015700079818617970730F48A819B81820F931FA8
:101580009F838E83123031F48E8D882319F08E8DD7
:1015900081508E8F80E09E8D9F5F9E8FDF91CF91D7
:1015A0001F910895FC01CB0140A14423A1F050E01C
:1015B00026813781240F351F37832683628173810B
:1015C0002617370720F020813181378326836681F3
:1015D00077810C94181408950F931F93CF93DF9382
:1015E000EC010FB6F8940F928C010D5E1F4F8AA18B
:1015F00018165CF48B89882341F0C80139D6811113
:10160000DAD68AA181508AA3F2CF8FEF8AA30F90F6
:101610000FBE0FB6F8940F928E01085F1F4F89A17D
:1016200018165CF48885882341F0C80121D6811101
:10163000C2D689A1815089A3F2CF8FEF89A30F90E1
:101640000FBEDF91CF911F910F910895CF93DF933C
:10165000EC010FB6F8940F92288139818F8D78A113
:10166000879FC0011124A901480F591F5B834A833A
:101670001E8E3D832C83871B9109820F931F9F83AE
:101680008E838FEF89A38AA361110AC0888588237E
:1016900069F0CE010896ECD5813041F47ADE06C0BF
:1016A000CE010896ECD7CE014396E9D70F900FBE36
:1016B00081E0DF91CF910895EF92FF921F93CF9336
:1016C000DF931F92CDB7DEB7182F662329F0869FD0
:1016D000C0011124019602C080E090E083966983E6
:1016E00014D77C016981009791F0611104C0FC015D
:1016F0009183808306C09C012D5D3F4FFC013183A7
:101700002083F701178F60A361E0C7019FDFC70146
:101710000F90DF91CF911F91FF90EF900895AF92BE
:10172000BF92CF92DF92EF92FF920F93CF93DF930E
:10173000CDB7DEB729970FB6F894DEBF0FBECDBF89
:101740007C016B012E833F834887598720E05C0131
:1017500088E0A80EB11C0FB6F8940F92F701968D91
:10176000878D981710F00230A9F4402FB601C701F9
:10177000C4DEF7019389992339F0C701439678D5E0
:10178000813021F406DE02C08111FCCF0F900FBE24
:1017900081E04CC08E819F81A885B985892B8A2BD9
:1017A0008B2B19F40F900FBE40C0211103C0CE0146
:1017B00001969BD50F900FBECED20FB6F8940F9224
:1017C000F70181A18F3F09F411A2F70182A18F3F98
:1017D00009F412A20F900FBEBE016A5F7F4FCE01C7
:1017E000019694D581111EC00FB6F8940F92F7019F
:1017F000968D0F900FBEF701878D98130FC04E8105
:101800005F8168857985C5010FD5C701E5DE8AD37B
:10181000882311F021E09FCFBCDDFCCFC701DCDEC7
:1018200081D3F8CFC701D8DE7DD380E029960FB6EB
:10183000F894DEBF0FBECDBFDF91CF910F91FF9027
:10184000EF90DF90CF90BF90AF9008950F931F93CC
:10185000CF93DF93EC018A019E8D8F8D981710F046
:101860002230D1F4422FCE0148DE8AA18F3F79F495
:101870008B89882379F0CE014396FAD4882351F0DE
:101880000115110539F081E0F801808306C08AA1B5
:101890008F5F8AA381E001C080E0DF91CF911F912B
:1018A0000F910895AF92BF92CF92DF92EF92FF9285
:1018B0000F93CF93DF93CDB7DEB729970FB6F89488
:1018C000DEBF0FBECDBF7C016B012E833F834887F7
:1018D000598720E05C0183E1A80EB11C0FB6F89493
:1018E0000F92F701868D882361F1A680B780B6013B
:1018F000C70158DEF701011116C0868D8150868F11
:1019000080819181892B21F4EED5F7019383828325
:10191000F7018085882389F0C7010896A9D4813012
:1019200061F437DD0AC0B782A6828389882329F053
:10193000C70143969DD48111F4CF0F900FBE81E073
:1019400058C08E819F81A885B985892B8A2B8B2BC6
:1019500019F40F900FBE4CC0211103C0CE010196A7
:10196000C4D40F900FBEF7D10FB6F8940F92F701C1
:1019700081A18F3F09F411A2F70182A18F3F09F4E1
:1019800012A20F900FBEBE016A5F7F4FCE0101967B
:10199000BDD481112AC00FB6F8940F92F701868D3D
:1019A0000F900FBE81111DC0F70180819181892B9D
:1019B00049F40FB6F8940F92F70182819381FFD416
:1019C0000F900FBE4E815F8168857985C5012CD44B
:1019D000C70102DEA7D2882311F021E07FCFD9DC36
:1019E000FCCFC701F9DD9ED2F8CFC701F5DD9AD251
:1019F00080E029960FB6F894DEBF0FBECDBFDF9111
:101A0000CF910F91FF90EF90DF90CF90BF90AF906C
:101A10000895E0919602F09197028081811104C0AF
:101A20008FEF9FEFDC010EC0E0919602F0919702DC
:101A30000780F085E02D0084F185E02D828193817F
:101A4000A481B58180936E0290936F02A09370027F
:101A5000B09371020895CF92DF92EF92FF926B01E3
:101A60007C01E0911C03F0911D03628373838483E6
:101A700095838091780290917902A0917A02B09139
:101A80007B0260911C0370911D03C816D906EA06FB
:101A9000FB0658F480919402909195026E5F7F4FFF
:101AA000FF90EF90DF90CF9020C6809196029091AA
:101AB00097026E5F7F4F19D680916E0290916F02F0
:101AC000A0917002B0917102C816D906EA06FB0611
:101AD00040F4C0926E02D0926F02E0927002F092D7
:101AE0007102FF90EF90DF90CF9008955F926F9218
:101AF0007F928F929F92AF92BF92CF92DF92EF929E
:101B0000FF920F931F93CF93DF934C01162F572E05
:101B10005A013901C114D10431F4CA01F6D46C015F
:101B2000009709F4C7C08CE290E0EFD4EC01009775
:101B300061F0DC8ECB8E21E0A21AB108AC0CBD1C8A
:101B4000E12FF52D80E090E007C0C6016ED5B2C050
:101B500001968830910561F0BF0141919E01280FE7
:101B6000391FD9015D964C93DB012C912111F0CFE7
:101B70001CA2102F0A3008F019E01A8F1DA31EA214
:101B80006E01B2E0CB0ED11CC6018AD5CE010E96F5
:101B900087D5DB87CA878AE090E0A0E0B0E0811BB0
:101BA0009109A109B1098E879F87A88BB98BDF8B1B
:101BB000CE8B1FA218A619A61AA61BA6A301B401B4
:101BC000C50140DB99838883E114F10419F0F70122
:101BD000D183C0830FB6F8940F9280917C028F5FFF
:101BE00080937C0280911C0390911D03892B79F5D1
:101BF000D0931D03C0931C0380917C028130B1F50A
:101C00008EEAE82E82E0F82EC70139D5FBE0EF0E10
:101C1000F11C2CE1E21623E0F206B1F783EA92E030
:101C20002ED588E992E02BD589E892E028D58EE779
:101C300092E025D583EA92E09093970280939602F2
:101C400088E992E090939502809394020FC080916E
:101C5000760281110BC0E0911C03F0911D03828D6F
:101C6000081720F0D0931D03C0931C0380917202CB
:101C70008F5F809372028A8D90917702981710F48B
:101C800080937702ABE08A9FC0011124B601825590
:101C90009D4F0AD50F900FBE80917602882341F0A8
:101CA000E0911C03F0911D03828D801708F471DB15
:101CB00081E001C08FEFDF91CF911F910F91FF90D5
:101CC000EF90DF90CF90BF90AF909F908F907F90DC
:101CD0006F905F900895AF92BF92CF92DF92EF9294
:101CE000FF920F93A12CB12CC12CD12CE12CF12C03
:101CF00000E020E030E045E550E061EA71E086EA8E
:101D000090E1F4DE8130F9F4F8948FEF9FEFDC017D
:101D100080936E0290936F02A0937002B093710251
:101D200081E08093760210927802109279021092EC
:101D30007A0210927B020F91FF90EF90DF90CF908C
:101D4000BF90AF90EBCA0F91FF90EF90DF90CF90D4
:101D5000BF90AF90089580916D028F5F80936D0268
:101D600008950FB6F8940F926091780270917902FD
:101D700080917A0290917B020F900FBE089560913E
:101D800078027091790280917A0290917B02089595
:101D9000AF92BF92CF92DF92EF92FF920F931F9379
:101DA000CF93DF9380916D028111A4C0809178025E
:101DB00090917902A0917A02B0917B020196A11DC7
:101DC000B11D8093780290937902A0937A02B09328
:101DD0007B02C0907802D0907902E0907A02F09075
:101DE0007B02C114D104E104F104B1F480919602A4
:101DF000909197022091940230919502309397022E
:101E0000209396029093950280939402809173029E
:101E10008F5F80937302FDDD80916E0290916F025F
:101E2000A0917002B0917102B12CC816D906EA06D1
:101E3000FB0608F44EC09BE0A92EE0919602F091BB
:101E400097028081811104C04FEF5FEFBA0112C089
:101E5000E0919602F09197020780F085E02DC08511
:101E6000D1854A815B816C817D81C416D506E606E9
:101E7000F70648F440936E0250936F02609370022D
:101E80007093710226C08E010E5F1F4FC80171D47E
:101E9000888D998D892B19F0CE010E966AD42A8DE2
:101EA00080917702821710F420937702A29EC001DE
:101EB0001124B80182559D4FF7D3E0911C03F09196
:101EC0001D039A8D828D981708F4B7CFBB24B39465
:101ED000B4CFE0911C03F0911D03E28D8BE0E89FED
:101EE000F0011124E255FD4F8081823048F0BB247F
:101EF000B39406C0809175028F5F80937502B12CF8
:101F000080917402882311F0BB24B3948B2DDF9150
:101F1000CF911F910F91FF90EF90DF90CF90BF90E6
:101F2000AF900895EF92FF920F931F93CF93DF939B
:101F30000FB6F8940F9280916D02815080936D02DC
:101F400080916D02882311F080E04EC080917C0268
:101F50008823D1F32BE0F22EEE24E39480918902C2
:101F6000882339F1E0919002F0919102C085D185EA
:101F7000CE010E96FED38E010E5F1F4FC801F9D31E
:101F80008A8D90917702981710F480937702F89ECB
:101F9000C0011124B80182559D4F86D3E0911C03E6
:101FA000F0911D039A8D828D9817C0F2E092740211
:101FB000D5CF80917502811108C080917402813063
:101FC00009F0C2CFE6D981E00FC0C1E0809175026F
:101FD000882399F3DDDE8111C0937402809175022C
:101FE000815080937502F2CF0F900FBEDF91CF9199
:101FF0001F910F91FF90EF900895AF92BF92CF92F3
:10200000DF92EF92FF920F931F93CF93DF9300D055
:1020100000D0CDB7DEB75C0149835A836B837C83E4
:102020009ADEC0907802D0907902E0907A02F09027
:102030007B02F501008111812281338149815A811E
:102040006B817C81400F511F621F731FC016D10628
:10205000E206F30638F4401751076207730768F485
:1020600081E006C081E0401751076207730730F036
:10207000C416D506E606F70608F080E0F5014083B1
:10208000518362837383882389F080911C0390912C
:102090001D03029649835A836B837C836AD34981EB
:1020A0005A816B817C81CB01BA01D5DC3BDF811188
:1020B00001C06FD90F900F900F900F90DF91CF91CB
:1020C0001F910F91FF90EF90DF90CF90BF90AF9056
:1020D0000895CF92DF92EF92FF92CF93DF9300D0DB
:1020E00000D0CDB7DEB7611571058105910511F4FA
:1020F00050D921C069837A838B839C832CDEC09066
:102100007802D0907902E0907A02F0907B026981A7
:102110007A818B819C81C60ED71EE81EF91E8091A4
:102120001C0390911D03029624D3C701B60193DCD2
:10213000F9DE8823E9F20F900F900F900F90DF9156
:10214000CF91FF90EF90DF90CF90089580917D0226
:10215000882321F100DEC0917E02E4DECC23B1F3BE
:102160000FB6F8940F92E0918502F0918602C08537
:10217000D185CE010296FDD280917C028150809360
:102180007C0280917D02815080937D020F900FBE72
:102190008B8D9C8D4AD2CE0148D2D8CF8091AE0291
:1021A0008230A0F2F6D8D2CF80916D02882321F040
:1021B00081E0809374020895109274029BE0E09194
:1021C00077029E9FF0011124E255FD4F808181111D
:1021D00006C080917702815080937702F0CFE09122
:1021E00077028BE0E89FF0011124E255FD4FA181B9
:1021F000B28114960D90BC91A02DB283A183CF0122
:102200000396A817B90731F414968D919C911597F0
:10221000928381830180F281E02D80859185909366
:102220001D0380931C030895CF92DF92EF92FF92DB
:102230006A017B0160911C0370911D03625F7F4FF7
:1022400054D280911C0390911D03029692D260910A
:1022500078027091790280917A0290917B026C0DE4
:102260007D1D8E1D9F1DFF90EF90DF90CF90F3CBD3
:102270000F931F93CF93DF93DC011796ED91FC91A1
:102280001897C085D1858E01025F1F4FC80171D29A
:1022900080916D02811113C00C501109C80169D2DF
:1022A0008A8D90917702981710F480937702BBE0A3
:1022B0008B9FC0011124B80182559D4F03C0B80106
:1022C00089E892E0F1D1E0911C03F0911D039A8D11
:1022D000828D891720F481E08093740201C080E030
:1022E000DF91CF911F910F91089520917302FC010E
:1022F0002083409178025091790260917A02709126
:102300007B02418352836383748308958F929F92EB
:10231000AF92BF92CF92DF92EF92FF920F931F93F3
:10232000CF93DF93FB010FB6F8940F9200917802E0
:102330001091790220917A0230917B02B091730260
:10234000EC01A88149815A816B817C81BA1729F0FF
:102350000417150726073707F0F4C080D180E28004
:10236000F38048015901841A950AA60AB70A8C1409
:102370009D04AE04BF0478F4401B510B620B730B39
:102380004C0D5D1D6E1D7F1D4083518362837383E1
:10239000ACDF80E001C081E00F900FBEDF91CF91F4
:1023A0001F910F91FF90EF90DF90CF90BF90AF9073
:1023B0009F908F90089581E08093740208950F9309
:1023C0001F93CF93DF93EC01009709F44EC08A8DE1
:1023D000E0911C03F0911D03928D891708F045C010
:1023E0004E855F856889798977FD11C0E0911C036E
:1023F000F0911D03928D4AE050E060E070E0491BCF
:102400005109610971094E875F87688B798B2BE0D1
:10241000829FC001112482559D4F2C853D85281730
:102420003907E9F48E010E5F1F4FC801A2D1E09178
:102430001C03F0911D03828D8A8F9091770298176B
:1024400010F4809377022BE0829FC0011124B80121
:1024500082559D4FDF91CF911F910F9125C1E09142
:102460001C03F0911D03828D8A8FDF91CF911F9104
:102470000F9108950F931F93CF93DF93EC01009773
:1024800011F480E02BC08EA181508EA32A8D9DA1D6
:102490002917B9F38111F5CF8E010E5F1F4FC801C7
:1024A00068D18DA18A8F4AE050E060E070E0481B5F
:1024B0005109610971094E875F87688B798B90910B
:1024C0007702981710F4809377022BE0829FC00167
:1024D0001124B80182559D4FE7D081E0DF91CF9163
:1024E0001F910F91089580911C0390911D03892BDA
:1024F00039F0E0911C03F0911D0386A18F5F86A344
:1025000080911C0390911D0308950F931F93CF9307
:10251000DF93EC0120DC80911E03811121C088E251
:1025200093E0909324038093230310922603109248
:1025300025038BED95E09093220380932103109265
:10254000200310921F0390932B0380932A038FE1A3
:1025500093E0909329038093280381E080931E03E6
:10256000209709F02496CE0101978A3D954008F006
:1025700053C0E0912303F0912403A3E2B3E08281EE
:1025800093818C179D0728F023E0EF31F20749F47F
:1025900043C02081318121153105B1F3DF01F901FB
:1025A000EECF0D911C9111970C5F1F4F208131814F
:1025B0002D933C938C1B9D0B8930910500F1DF011D
:1025C000AC0FBD1F13969C938E931297D383C28337
:1025D00012962D913C91139763E273E0EB01888191
:1025E0009981EC014A815B814217530710F4BC01C9
:1025F000F5CF11969C938E93EB01B983A8838091BC
:1026000010019091110122813381821B930B9093D1
:1026100011018093100102C000E010E083DCC801CA
:10262000DF91CF911F910F910895CF93DF93009782
:1026300019F1EC0124978FDB2A813B81E3E2F3E07F
:10264000A081B18112968D919C9113978217930767
:1026500010F4FD01F5CFB983A883D183C0838091A5
:10266000100190911101820F931F9093110180939B
:102670001001DF91CF9156CCDF91CF910895FC01ED
:102680000396928381834FEF5FEFBA0143835483B4
:1026900065837683908787839287818710820895E8
:1026A000FC01138612860895CF93DF939C01FB01F2
:1026B000DC011196CD91DC911297D583C4838E8174
:1026C0009F81978386838E819F81DC0115967C9301
:1026D0006E9314977F836E8333872287F9018081FD
:1026E0008F5F8083DF91CF910895EF92FF920F93D8
:1026F0001F93CF93DF937C01FB0140815181628165
:1027000073814F3F8FEF58076807780721F4E7017F
:10271000A985BA8512C0D701139614968D919C9104
:102720001597EC01088119812A813B8140175107D7
:102730006207730710F0DC01F0CF14968D919C9125
:10274000159795838483EC01FF83EE83B783A6837B
:102750001596FC93EE931497F386E286F701808139
:102760008F5F8083DF91CF911F910F91FF90EF904A
:102770000895CF93DF93FC01A285B3858481958171
:1027800026813781EC013F832E83C681D7819D83CB
:102790008C8311968D919C9112978E179F0721F42F
:1027A0001296DC93CE931197138612868C918150EA
:1027B0008C93DF91CF910895AA1BBB1B51E107C0F9
:1027C000AA1FBB1FA617B70710F0A61BB70B881FC1
:1027D000991F5A95A9F780959095BC01CD01089550
:1027E000A1E21A2EAA1BBB1BFD010DC0AA1FBB1F15
:1027F000EE1FFF1FA217B307E407F50720F0A21B87
:10280000B30BE40BF50B661F771F881F991F1A94F3
:1028100069F760957095809590959B01AC01BD011D
:10282000CF010895EE0FFF1F0590F491E02D09945C
:10283000FB01DC0102C001900D9241505040D8F7DD
:062840000895F894FFCF9B
:1028460000000309800001000000FF67046704011F
:10285600DB05000000000301B2028700A000920021
:10286600E200000000006C020D0A006E616E006955
:102876006E66006F7666002E005350443A20004480
:1028860045533A20004449533A2000640073616D71
:10289600706C655F706F74656E74696F6D65746575
:1028A600720066756E6374696F6E5F6578656375D1
:1028B600746F720073656E645F55415254007265A1
:1028C60063656976655F5541525400647269766541
:1028D6005F7069657A6F5F616E645F6D6F746F724A
:0628E6000049444C4500CE
:00000001FF
