:100000005EC0000085C40000AAC400007FC00000DC
:100010007DC000007BC0000079C00000FDC300006F
:1000200075C0000073C0000071C000000C94F51290
:100030006DC000006BC0000069C0000067C0000018
:10004000C0C4000063C00000A4C10000D4C100000F
:100050005DC000005BC0000059C0000057C0000038
:1000600055C0000053C0000002000000080002015B
:10007000000003040700000000000000000102046B
:10008000081020408001020408102001020408101A
:100090002004040404040404040202020202020311
:1000A000030303030300000000250028002B0000C9
:1000B000000000240027002A00002902A3021124C6
:1000C0001FBECFEFD8E0DEBFCDBF11E0A0E0B1E0B2
:1000D000E6EBF7E202C005900D92A03AB107D9F71E
:1000E00028E0A0EAB1E001C01D92AD3FB207E1F700
:1000F00010E0CEEBD0E004C02297FE010E94CC13AA
:10010000CA3BD107C9F753D40C94D91379CFFC015A
:10011000818D228D90E0805C9F4F821B91098F73AF
:1001200099270895FC01918D828D981731F0828D69
:10013000E80FF11D858D90E008958FEF9FEF0895F2
:10014000FC01918D828D981761F0828DDF01A80FDF
:10015000B11D5D968C91928D9F5F9F73928F90E001
:1001600008958FEF9FEF089580E292E0892B41F090
:1001700080E090E0892B21F063D181110C94000084
:100180000895FC01848DDF01A80FB11DA35ABF4F54
:100190002C91848D90E001968F739927848FA68986
:1001A000B7892C93A089B1898C9180648C93938DAD
:1001B000848D981306C00288F389E02D80818F7D9D
:1001C00080830895CF93DF93EC01888D8823C1F05D
:1001D000EA89FB89808185FD05C0A889B9898C9150
:1001E00086FD0EC00FB607FCF5CF808185FFF2CFEC
:1001F000A889B9898C9185FFEDCFCE01C2DFE8CF08
:10020000DF91CF910895CF92DF92FF920F931F93CA
:10021000CF93DF931F92CDB7DEB76C0181E0D6019B
:1002200058968C9358975B969C915B975C968C91B3
:100230005C97981307C05096ED91FC91519780817F
:1002400085FD2DC0F601038D10E00F5F1F4F0F736A
:100250001127F02EF601848DF81210C00FB607FC9E
:10026000F9CFD6015096ED91FC915197808185FF91
:10027000F1CFC601698385DF6981ECCF838DE80FFB
:10028000F11DE35AFF4F6083D6015B960C935B9799
:100290005296ED91FC915397808180620CC0D601FB
:1002A0005696ED91FC91579760835096ED91FC9195
:1002B000519780818064808381E090E00F90DF918E
:1002C000CF911F910F91FF90DF90CF900895BF9233
:1002D000CF92DF92EF92FF92CF93DF93EC016A010E
:1002E0007B01B22EE889F98982E08083411581EE95
:1002F000580761057105A1F060E079E08DE390E0B9
:10030000A70196010E94A813215031094109510902
:100310005695479537952795211580E1380798F030
:10032000E889F989108260E874E88EE190E0A7011D
:1003300096010E94A813215031094109510956958F
:10034000479537952795EC85FD853083EE85FF85AC
:100350002083188EEC89FD89B082EA89FB8980812F
:1003600080618083EA89FB89808188608083EA8953
:10037000FB89808180688083EA89FB8980818F7D09
:100380008083DF91CF91FF90EF90DF90CF90BF906F
:1003900008951F920F920FB60F9211242F938F93EF
:1003A0009F93EF93FF93E091B001F091B1018081B1
:1003B000E091B601F091B70182FD12C09081809169
:1003C000B9018F5F8F732091BA01821751F0E091CC
:1003D000B901F0E0E056FE4F958F8093B90101C05E
:1003E0008081FF91EF919F918F912F910F900FBE80
:1003F0000F901F9018951F920F920FB60F92112415
:100400002F933F934F935F936F937F938F939F931C
:10041000AF93BF93EF93FF9380EA91E0B2DEFF9139
:10042000EF91BF91AF919F918F917F916F915F916C
:100430004F913F912F910F900FBE0F901F901895E5
:1004400080EA91E064DE21E0892B09F420E0822F2C
:1004500008951092A3011092A20188EE93E0A0E00B
:10046000B0E08093A4019093A501A093A601B0935E
:10047000A70186E191E09093A1018093A00185EC12
:1004800090E09093AD018093AC0184EC90E0909368
:10049000AF018093AE0180EC90E09093B101809326
:1004A000B00181EC90E09093B3018093B20182ECB3
:1004B00090E09093B5018093B40186EC90E0909326
:1004C000B7018093B6011092B9011092BA0110924F
:1004D000BB011092BC010895AF92BF92CF92DF9200
:1004E000EF92FF920F931F93CF93DF936C017B01E9
:1004F000C0E0D0E000E010E0F601EC0FFD1F4AE0A4
:1005000050E06281C7014FD15C016EE2C70169D042
:100510008A0D9B1D080F191F2196C330D10561F765
:100520004AE050E0F6016581C7013DD1800F911F7F
:10053000DF91CF911F910F91FF90EF90DF90CF90BF
:10054000BF90AF90089586E291E090933E02809331
:100550003D0210923F02109240021092410210920E
:1005600042020895CF92DF92EF92FF920F931F9372
:10057000CF93DF937C016A01EB0100E010E00C15E2
:100580001D0571F06991D701ED91FC910190F08109
:10059000E02DC7010995892B19F00F5F1F4FEFCF91
:1005A000C801DF91CF911F910F91FF90EF90DF90E5
:1005B000CF9008956115710581F0DB010D90002049
:1005C000E9F7AD0141505109461B570BDC01ED9194
:1005D000FC910280F381E02D099480E090E0089581
:1005E000E9CFDC01ED91FC910190F081E02D0994BF
:1005F00068E271E0DFCF0F931F93CF93DF93EC019D
:10060000D9DF8C01CE01F4DF800F911FDF91CF91F4
:100610001F910F9108958F929F92AF92BF92CF92A8
:10062000DF92EF92FF920F931F93CF93DF93CDB79B
:10063000DEB7A1970FB6F894DEBF0FBECDBF7C0129
:10064000C42EE52FCB01D22E19A221E02D1510F0DA
:100650002AE0D22E8E010F5D1F4F8D2C912CA12CE4
:10066000B12C6C2D7E2FA50194010E94A8138C2D16
:10067000D29E80191124015011098A3010F4805D36
:1006800001C0895CF80180832115310541055105C0
:1006900021F0C22EE32FCA01E4CFB801C7018ADFDF
:1006A000A1960FB6F894DEBF0FBECDBFDF91CF91FC
:1006B0001F910F91FF90EF90DF90CF90BF90AF9080
:1006C0009F908F900895CF92DF92EF92FF920F93B9
:1006D0001F93CF93DF93EC016A017B012115310554
:1006E00079F4E881F9810190F081E02D642FDF91A8
:1006F000CF911F910F91FF90EF90DF90CF900994D1
:100700002A303105D9F477FF18C06DE26ADF8C0119
:1007100044275527BA014C195D096E097F092AE063
:10072000CE0179DF800F911FDF91CF911F910F9143
:10073000FF90EF90DF90CF9008952AE0B701A601D7
:10074000CE01DF91CF911F910F91FF90EF90DF903D
:10075000CF9061CF9A01AB01662757FD6095762F48
:10076000B2CF0F931F93CF93DF93EC019A01AB01AC
:10077000662757FD6095762FA6DF8C01CE0138DF06
:10078000800F911FDF91CF911F910F910895211537
:10079000310541F4DC01ED91FC910190F081E02DF7
:1007A000642F099438CF9A01462F50E060E070E042
:1007B000EECF813039F018F0823051F00895109268
:1007C0006E00089580916F008D7F80936F00089573
:1007D000809170008D7F8093700081E08093B000E5
:1007E0008091B100887F84608093B1001092B30043
:1007F0000895CF93C82F80910A018C1307C0E8E6B3
:10080000F0E084919FEF90930A0101C08FEFD1DF58
:1008100060E08C2FCF9142C21F920F920FB60F92C1
:1008200011242F933F934F935F936F937F938F93F5
:100830009F93AF93BF93EF93FF9380914602909164
:100840004702A0914802B0914902892B8A2B8B2B39
:1008500051F190914302E0914402F0914502808170
:10086000892780838091460290914702A091480297
:10087000B0914902181619061A061B06BCF480919D
:10088000460290914702A0914802B0914902019717
:10089000A109B1098093460290934702A0934802B0
:1008A000B093490203C080910A01A3DFFF91EF9149
:1008B000BF91AF919F918F917F916F915F914F9178
:1008C0003F912F910F900FBE0F901F901895089594
:1008D0008230E8F4E82FF0E0EE0FFF1FE55FFE4FF7
:1008E00071836083813041F0809169008C7F842B1B
:1008F00080936900E89A089580916900440F551F1C
:10090000440F551F837F842B80936900E99A0895D3
:100910001F920F920FB60F9211242F933F934F9374
:100920005F936F937F938F939F93AF93BF93EF9357
:10093000FF93E0910B01F0910C010995FF91EF916C
:10094000BF91AF919F918F917F916F915F914F91E7
:100950003F912F910F900FBE0F901F9018951F92EF
:100960000F920FB60F9211242F933F934F935F93E3
:100970006F937F938F939F93AF93BF93EF93FF9367
:10098000E0910D01F0910E010995FF91EF91BF915A
:10099000AF919F918F917F916F915F914F913F9117
:1009A0002F910F900FBE0F901F90189508955FD054
:1009B000FDDFBFD3C4EBD0E003D42097E9F3D4DB51
:1009C000FBCF1F920F920FB60F9211242F933F93DC
:1009D0008F939F93AF93BF9380914B0290914C0262
:1009E000A0914D02B0914E0230914A0223E0230FB4
:1009F0002D3720F40196A11DB11D05C026E8230F57
:100A00000296A11DB11D20934A0280934B02909340
:100A10004C02A0934D02B0934E0280914F029091F0
:100A20005002A0915102B09152020196A11DB11D38
:100A300080934F0290935002A0935102B0935202C0
:100A4000BF91AF919F918F913F912F910F900FBECA
:100A50000F901F9018952FB7F89460914B027091EA
:100A60004C0280914D0290914E022FBF08957894D0
:100A700084B5826084BD84B5816084BD85B58260A3
:100A800085BD85B5816085BDEEE6F0E08081816041
:100A90008083E1E8F0E01082808182608083808141
:100AA00081608083E0E8F0E0808181608083E1EB19
:100AB000F0E0808184608083E0EBF0E08081816001
:100AC0008083EAE7F0E080818460808380818260B7
:100AD00080838081816080838081806880831092A0
:100AE000C10008958E3008F08E50877020910F015C
:100AF00090E4299F90011124822B80937C008091A7
:100B00007A00806480937A0080917A0086FDFCCF21
:100B1000809178002091790090E0922B08951F93A6
:100B2000CF93DF93182FEB0161E07FD0209711F472
:100B300060E004C0CF3FD10531F461E0812FDF9147
:100B4000CF911F91ABC0E12FF0E0E759FF4FE49147
:100B5000E330F9F048F4E130B9F0E230A1F584B5C2
:100B6000806284BDC8BD34C0E730E9F0E83019F1D7
:100B7000E43049F580918000806280938000D093BA
:100B80008B00C0938A0024C084B5806884BDC7BD33
:100B90001FC080918000806880938000D09389007E
:100BA000C093880015C08091B00080688093B00029
:100BB000C093B3000DC08091B00080628093B000FC
:100BC000C093B40005C0C038D1050CF0B6CFB0CF8B
:100BD000DF91CF911F910895833081F028F4813007
:100BE00099F08230A1F008958730A9F08830B9F0EB
:100BF0008430D1F4809180008F7D03C0809180008B
:100C00008F7780938000089584B58F7702C084B574
:100C10008F7D84BD08958091B0008F7703C080914F
:100C2000B0008F7D8093B0000895CF93DF9390E064
:100C3000FC01E358FF4F2491FC01EF56FF4F8491D4
:100C4000882349F190E0880F991FFC01E155FF4F7F
:100C5000A591B4918B559F4FFC01C591D4919FB73D
:100C6000611108C0F8948C91209582238C9388811F
:100C700082230AC0623051F4F8948C91322F30955F
:100C800083238C938881822B888304C0F8948C9171
:100C9000822B8C939FBFDF91CF9108950F931F9369
:100CA000CF93DF931F92CDB7DEB7282F30E0F90145
:100CB000E759FF4F8491F901E358FF4F1491F9016F
:100CC000EF56FF4F04910023C1F0882319F0698388
:100CD00083DF6981E02FF0E0EE0FFF1FEB55FF4F40
:100CE000A591B4919FB7F8948C91611103C01095B0
:100CF000812301C0812B8C939FBF0F90DF91CF91F7
:100D00001F910F91089561E080916302811101C0EC
:100D100060E086E0C3DF61E080916302823008F426
:100D200060E087E0BBDF61E080916302833008F41C
:100D300060E088E0B3CFCF93DF9300D000D0CDB791
:100D4000DEB719821A821B821C82AED669837A832F
:100D50008B839C8361E089E0A1DF48EE53E060E093
:100D600070E0CE010196E3D760E089E097DF0F9055
:100D70000F900F900F90DF91CF91089560916302D3
:100D800089E1689FB00111248AE0C9CECF93DF9337
:100D900000D000D000D0CDB7DEB719821A821B82F6
:100DA0001C828091640220916202309163024AE0C9
:100DB000849FC0011124830F911D34E6239F800D71
:100DC000911D11249E838D8300E020E030E0A90175
:100DD000BE016B5F7F4F809156029091570242D3C4
:100DE00048EE53E060E070E0CE010196A0D7D9CF85
:100DF000CF93DF9300D000D0CDB7DEB719821A822F
:100E00001B821C8289EAE82E87E0F82E85E06ADEE4
:100E100097FF02C081509F4F90936202F09266024A
:100E2000E092650200E02FEF3FEFA90165E672E076
:100E3000809154029091550215D344EF51E060E047
:100E400070E0CE01019673D7E1CFCF93DF9300D04E
:100E5000CDB7DEB700E02FEF3FEFA901BE016F5F16
:100E60007F4F8091540290915502BFD3813091F70A
:100E7000E981FA810995EECFCF93DF9300D000D0BE
:100E800000D0CDB7DEB719821A821B821C829AE08D
:100E9000E92EF12C24E6C22ED12C00E02FEF3FEFFB
:100EA000A901BE016B5F7F4F80915602909157025E
:100EB0009CD3813009F045C08D819E81B7010E948D
:100EC00094138C0161E471E080EA91E089DB4AE0EF
:100ED00050E0B80180EA91E044DC8D819E81B70149
:100EE0000E949413CB01B7010E9494138C0169E313
:100EF00071E080EA91E074DB4AE050E0B80180EAFA
:100F000091E02FDC8D819E81B6010E949413CB016C
:100F1000B7010E9494138C0169E471E080EA91E0CA
:100F20005FDBB8016F5F7F4F4AE050E080EA91E0FD
:100F300011DC64E571E080EA91E05DDB80EA91E03C
:100F400057DB48EE53E060E070E0CE010196EFD64B
:100F5000A4CF0F93CF93C0916302909164028091CC
:100F60006202981710F4809164028093630283E810
:100F700096E0909366028093650200E02FEF3FEFCA
:100F8000A90165E672E080915402909155026AD2FF
:100F90008EEB96E090936602809365022FEF3FEF11
:100FA000A90165E672E080915402909155025AD2EF
:100FB0009091640280916202891790F48C1780F4FA
:100FC0008BE996E090936602809365022FEF3FEFE6
:100FD000A90165E672E0809154029091550242D2D7
:100FE000CF910F910895809164028330A8F480918D
:100FF00064028F5F8093640289EA97E090936602AF
:101000008093650221E043E552E065E672E080915D
:10101000540290915502BDC20895CF92DF92EF9293
:10102000FF92CF93DF9300D000D0CDB7DEB713DDB2
:10103000C0905E02D0905F02E0906002F09061028A
:1010400028ECC20ED11CE11CF11CC616D706E8061E
:10105000F90688F469837A838B839C83C4DF698172
:101060007A818B819C8160935E0270935F02809392
:101070006002909361020F900F900F900F90DF919C
:10108000CF91FF90EF90DF90CF9008958091640210
:101090008823A9F08091640281508093640289EAD8
:1010A00097E0909366028093650221E043E552E069
:1010B00065E672E080915402909155026AC20895EB
:1010C000CF92DF92EF92FF92CF93DF9300D000D0C8
:1010D000CDB7DEB7C0DCC0905A02D0905B02E09082
:1010E0005C02F0905D0228ECC20ED11CE11CF11CE8
:1010F000C616D706E806F90688F469837A838B83D7
:101100009C83C4DF69817A818B819C8160935A02C0
:1011100070935B0280935C0290935D020F900F903E
:101120000F900F90DF91CF91FF90EF90DF90CF90D5
:1011300008950F9361E086E078DD61E087E075DD7A
:1011400061E088E072DD61E089E06FDD43E050E05E
:101150006DE078E081E0BCDB43E050E060E678E001
:1011600080E0B6DB26E040E052EC61E070E080EA2F
:1011700091E0ADD866E571E080EA91E03CDA40E0CC
:1011800062E083E03CD1909357028093560240E0A6
:1011900068E08FE034D1909355028093540243E08D
:1011A00060E081E02CD1909359028093580200E0D6
:1011B00020E030E0A90160E070E054D10F91089583
:1011C000AF92BF92CF92DF92EF92FF920F93A12C3A
:1011D000B12CC12CD12CE12CF12C05E020E030E029
:1011E00044E650E06DE571E088EF96E022D304E03C
:1011F00020E030E048EC50E062E771E085E297E003
:1012000018D302E020E030E048EC50E064E871E000
:101210008CE397E00ED303E020E030E048EC50E0B0
:1012200061E971E086EC96E004D30F91FF90EF90B6
:10123000DF90CF90BF90AF90F1C31F93CF93DF9318
:10124000EC01142F48A141110BC088819981892B91
:1012500009F040C08A819B816AD71B821A823BC0F9
:1012600050E0111115C08C819D810E94D01328A1DE
:101270008C819D81820F911D9D838C832A813B816E
:101280008217930738F1888199819D838C8322C0CE
:101290008E819F810E94D01328A130E03195219545
:1012A00031098E819F81820F931F9F838E83688176
:1012B00079818617970730F48A819B81820F931F6B
:1012C0009F838E83123031F48E8D882319F08E8D9A
:1012D00081508E8F80E09E8D9F5F9E8FDF91CF919A
:1012E0001F910895FC01CB0140A14423A1F050E0DF
:1012F00026813781240F351F3783268362817381CE
:101300002617370720F020813181378326836681B5
:1013100077810C94D01308950F931F93CF93DF938D
:10132000EC010FB6F8940F928C010D5E1F4F8AA14D
:1013300018165CF48B89882341F0C801F6D5811119
:1013400097D68AA181508AA3F2CF8FEF8AA30F90FC
:101350000FBE0FB6F8940F928E01085F1F4F89A140
:1013600018165CF48885882341F0C801DED5811108
:101370007FD689A1815089A3F2CF8FEF89A30F90E7
:101380000FBEDF91CF911F910F910895CF93DF93FF
:10139000EC010FB6F8940F92288139818F8D78A1D6
:1013A000879FC0011124A901480F591F5B834A83FD
:1013B0001E8E3D832C83871B9109820F931F9F8371
:1013C0008E838FEF89A38AA361110BC08885882340
:1013D00081F0CE010896A9D5813059F40E944312BC
:1013E00008C0CE0108960E94F712CE0143960E94D3
:1013F000F7120F900FBE81E0DF91CF910895EF9229
:10140000FF921F93CF93DF931F92CDB7DEB7182FB4
:10141000662329F0869FC0011124019602C080E056
:1014200090E083966983CED67C016981009791F024
:10143000611104C0FC019183808306C09C012D5D75
:101440003F4FFC0131832083F701178F60A361E0D8
:10145000C7019CDFC7010F90DF91CF911F91FF90D3
:10146000EF900895AF92BF92CF92DF92EF92FF92EA
:101470000F93CF93DF93CDB7DEB729970FB6F894CC
:10148000DEBF0FBECDBF7C016B012E833F8348873B
:10149000598720E05C0188E0A80EB11C0FB6F894D3
:1014A0000F92F701968D878D981710F00230A9F4EE
:1014B000402FB601C701C1DEF7019389992339F0A6
:1014C000C701439632D5813021F4DDD702C08111A6
:1014D000FCCF0F900FBE81E04CC08E819F81A8850C
:1014E000B985892B8A2B8B2B19F40F900FBE40C026
:1014F000211103C0CE01019655D50F900FBECED25B
:101500000FB6F8940F92F70181A18F3F09F411A251
:10151000F70182A18F3F09F412A20F900FBEBE0106
:101520006A5F7F4FCE0101964ED581111EC00FB666
:10153000F8940F92F701968D0F900FBEF701878DEB
:1015400098130FC04E815F8168857985C501C9D424
:10155000C701E2DE81D3882311F021E09FCF93D72A
:10156000FCCFC701D9DE78D3F8CFC701D5DE74D35D
:1015700080E029960FB6F894DEBF0FBECDBFDF9195
:10158000CF910F91FF90EF90DF90CF90BF90AF90F1
:1015900008950F931F93CF93DF93EC018A019E8DE3
:1015A0008F8D981710F02230D1F4422FCE0145DEF6
:1015B0008AA18F3F79F48B89882379F0CE014396F5
:1015C000B4D4882351F00115110539F081E0F801F8
:1015D000808306C08AA18F5F8AA381E001C080E07A
:1015E000DF91CF911F910F910895AF92BF92CF924B
:1015F000DF92EF92FF920F93CF93DF93CDB7DEB7D9
:1016000029970FB6F894DEBF0FBECDBF7C016B01EA
:101610002E833F834887598720E05C0183E1A80E31
:10162000B11C0FB6F8940F92F701868D882361F1F3
:10163000A680B780B601C70155DEF701011116C0BB
:10164000868D8150868F80819181892B21F4A8D548
:10165000F70193838283F7018085882389F0C7018E
:10166000089663D4813061F40ED70AC0B782A6828F
:101670008389882329F0C701439657D48111F4CF79
:101680000F900FBE81E058C08E819F81A885B985DB
:10169000892B8A2B8B2B19F40F900FBE4CC0211174
:1016A00003C0CE0101967ED40F900FBEF7D10FB6C6
:1016B000F8940F92F70181A18F3F09F411A2F7016D
:1016C00082A18F3F09F412A20F900FBEBE016A5F84
:1016D0007F4FCE01019677D481112AC00FB6F894BE
:1016E0000F92F701868D0F900FBE81111DC0F7017B
:1016F00080819181892B49F40FB6F8940F92F701FC
:1017000082819381B9D40F900FBE4E815F8168852D
:101710007985C501E6D3C701FFDD9ED2882311F08C
:1017200021E07FCFB0D6FCCFC701F6DD95D2F8CF50
:10173000C701F2DD91D280E029960FB6F894DEBFA2
:101740000FBECDBFDF91CF910F91FF90EF90DF9053
:10175000CF90BF90AF900895E0919002F0919102E8
:101760008081811104C08FEF9FEFDC010EC0E091FA
:101770009002F09191020780F085E02D0084F185C0
:10178000E02D82819381A481B5818093680290933A
:101790006902A0936A02B0936B020895CF92DF9220
:1017A000EF92FF926B017C01E0911603F091170319
:1017B0006283738384839583809172029091730214
:1017C000A0917402B0917502609116037091170395
:1017D000C816D906EA06FB0658F480918E0290914D
:1017E0008F026E5F7F4FFF90EF90DF90CF9035C7F5
:1017F00080919002909191026E5F7F4F2ED78091E1
:10180000680290916902A0916A02B0916B02C816B9
:10181000D906EA06FB0640F4C0926802D09269023B
:10182000E0926A02F0926B02FF90EF90DF90CF900F
:1018300008955F926F927F928F929F92AF92BF9224
:10184000CF92DF92EF92FF920F931F93CF93DF938C
:101850004C01162F572E5A013901C114D10431F40D
:10186000CA01B0D46C01009709F4C7C08CE290E0C3
:10187000A9D4EC01009761F0DC8ECB8E21E0A21A96
:10188000B108AC0CBD1CE12FF52D80E090E007C045
:10189000C60128D5B2C001968830910561F0BF011C
:1018A00041919E01280F391FD9015D964C93DB01B0
:1018B0002C912111F0CF1CA2102F0A3008F019E052
:1018C0001A8F1DA31EA26E01B2E0CB0ED11CC60161
:1018D0009FD6CE010E969CD6DB87CA878AE090E021
:1018E000A0E0B0E0811B9109A109B1098E879F8713
:1018F000A88BB98BDF8BCE8B1FA218A619A61AA6B0
:101900001BA6A301B401C50117D599838883E114EF
:10191000F10419F0F701D183C0830FB6F8940F9248
:10192000809176028F5F809376028091160390916A
:101930001703892B79F5D0931703C0931603809171
:1019400076028130B1F588EAE82E82E0F82EC701F0
:101950004ED6FBE0EF0EF11C26E1E21623E0F20684
:10196000B1F78DE992E043D682E992E040D683E870
:1019700092E03DD688E792E03AD68DE992E09093E6
:1019800091028093900282E992E090938F0280937B
:101990008E020FC08091700281110BC0E09116037E
:1019A000F0911703828D081720F0D0931703C0938E
:1019B000160380916C028F5F80936C028A8D9091E8
:1019C0007102981710F480937102ABE08A9FC001F6
:1019D0001124B60188559D4F1FD60F900FBE8091E0
:1019E0007002882341F0E0911603F0911703828D75
:1019F000801708F448D581E001C08FEFDF91CF91C7
:101A00001F910F91FF90EF90DF90CF90BF90AF901C
:101A10009F908F907F906F905F900895AF92BF924C
:101A2000CF92DF92EF92FF920F93A12CB12CC12C99
:101A3000D12CE12CF12C00E020E030E045E550E035
:101A40006BE971E083E09FE0F4DE8130F9F4F89413
:101A50008FEF9FEFDC018093680290936902A0935F
:101A60006A02B0936B0281E080937002109272025E
:101A70001092730210927402109275020F91FF90EF
:101A8000EF90DF90CF90BF90AF90C2C40F91FF90C6
:101A9000EF90DF90CF90BF90AF9008958091670254
:101AA0008F5F8093670208950FB6F8940F9260914C
:101AB00072027091730280917402909175020F907E
:101AC0000FBE0895AF92BF92CF92DF92EF92FF9236
:101AD0000F931F93CF93DF93809167028111A4C06E
:101AE0008091720290917302A0917402B09175027C
:101AF0000196A11DB11D8093720290937302A09371
:101B00007402B0937502C0907202D0907302E0909C
:101B10007402F0907502C114D104E104F104B1F42F
:101B2000809190029091910220918E0230918F02CB
:101B3000309391022093900290938F0280938E02B3
:101B400080916D028F5F80936D0206DE8091680246
:101B500090916902A0916A02B0916B02B12CC816F3
:101B6000D906EA06FB0608F44EC09BE0A92EE091D8
:101B70009002F09191028081811104C04FEF5FEFDC
:101B8000BA0112C0E0919002F09191020780F085B5
:101B9000E02DC085D1854A815B816C817D81C41631
:101BA000D506E606F70648F44093680250936902AA
:101BB00060936A0270936B0226C08E010E5F1F4F06
:101BC000C8018FD5888D998D892B19F0CE010E967D
:101BD00088D52A8D80917102821710F420937102AA
:101BE000A29EC0011124B80188559D4F15D5E091E2
:101BF0001603F09117039A8D828D981708F4B7CFCA
:101C0000BB24B394B4CFE0911603F0911703E28D97
:101C10008BE0E89FF0011124E855FD4F8081823070
:101C200048F0BB24B39406C080916F028F5F80930D
:101C30006F02B12C80916E02882311F0BB24B39403
:101C40008B2DDF91CF911F910F91FF90EF90DF903F
:101C5000CF90BF90AF900895EF92FF920F931F9394
:101C6000CF93DF930FB6F8940F9280916702815063
:101C70008093670280916702882311F080E04EC054
:101C8000809176028823D1F32BE0F22EEE24E394A8
:101C900080918302882339F1E0918A02F0918B02CE
:101CA000C085D185CE010E961CD58E010E5F1F4FCB
:101CB000C80117D58A8D90917102981710F48093FE
:101CC0007102F89EC0011124B80188559D4FA4D41B
:101CD000E0911603F09117039A8D828D9817C0F248
:101CE000E0926E02D5CF80916F02811108C0809181
:101CF0006E02813009F0C2CFC6D381E00FC0C1E0CF
:101D000080916F02882399F3DDDE8111C0936E020A
:101D100080916F02815080936F02F2CF0F900FBEBF
:101D2000DF91CF911F910F91FF90EF900895AF92A7
:101D3000BF92CF92DF92EF92FF920F931F93CF93B8
:101D4000DF9300D000D0CDB7DEB75C0149835A8362
:101D50006B837C83A3DEC0907202D0907302E0900C
:101D60007402F0907502F5010081118122813381A6
:101D700049815A816B817C81400F511F621F731F03
:101D8000C016D106E206F30638F440175107620781
:101D9000730768F481E006C081E0401751076207CD
:101DA000730730F0C416D506E606F70608F080E0A3
:101DB000F5014083518362837383882389F0809186
:101DC000160390911703029649835A836B837C8391
:101DD00088D449815A816B817C81CB01BA01DEDCD8
:101DE0003BDF811101C04FD30F900F900F900F90E8
:101DF000DF91CF911F910F91FF90EF90DF90CF90E7
:101E0000BF90AF90089580917702882321F146DE3C
:101E1000C091780221DFCC23B1F30FB6F8940F9272
:101E2000E0917F02F0918002C085D185CE010296BB
:101E300058D4809176028150809376028091770207
:101E40008150809377020F900FBE8B8D9C8D4AD26C
:101E5000CE0148D2D8CF8091A8028230A0F213D30D
:101E6000D2CF80916702882321F081E080936E02B7
:101E7000089510926E029BE0E09171029E9FF00126
:101E80001124E855FD4F8081811106C080917102B7
:101E9000815080937102F0CFE09171028BE0E89F56
:101EA000F0011124E855FD4FA181B28114960D90E7
:101EB000BC91A02DB283A183CF010396A817B907C7
:101EC00031F414968D919C911597928381830180B2
:101ED000F281E02D808591859093170380931603FE
:101EE0000895CF92DF92EF92FF926A017B01609199
:101EF000160370911703625F7F4FAFD38091160373
:101F0000909117030296EDD3609172027091730263
:101F100080917402909175026C0D7D1D8E1D9F1D28
:101F2000FF90EF90DF90CF9039CC0F931F93CF931A
:101F3000DF93DC011796ED91FC911897C085D18550
:101F40008E01025F1F4FC801CCD3809167028111BF
:101F500013C00C501109C801C4D38A8D909171022D
:101F6000981710F480937102BBE08B9FC00111247D
:101F7000B80188559D4F03C0B80183E892E04CD367
:101F8000E0911603F09117039A8D828D891720F442
:101F900081E080936E0201C080E0DF91CF911F91BC
:101FA0000F91089520916D02FC01208340917202EF
:101FB0005091730260917402709175024183528353
:101FC0006383748308958F929F92AF92BF92CF9252
:101FD000DF92EF92FF920F931F93CF93DF93FB015A
:101FE0000FB6F8940F920091720210917302209133
:101FF000740230917502B0916D02EC01A8814981A3
:102000005A816B817C81BA1729F0041715072607BE
:102010003707F0F4C080D180E280F3804801590195
:10202000841A950AA60AB70A8C149D04AE04BF044C
:1020300078F4401B510B620B730B4C0D5D1D6E1D34
:102040007F1D4083518362837383ACDF80E001C0D6
:1020500081E00F900FBEDF91CF911F910F91FF9004
:10206000EF90DF90CF90BF90AF909F908F900895AA
:1020700081E080936E0208950F931F93CF93DF93B7
:10208000EC01009709F44EC08A8DE0911603F0919F
:102090001703928D891708F045C04E855F856889C2
:1020A000798977FD11C0E0911603F0911703928DA5
:1020B0004AE050E060E070E0491B51096109710994
:1020C0004E875F87688B798B2BE0829FC00111243C
:1020D00088559D4F2C853D8528173907E9F48E01D9
:1020E0000E5F1F4FC801FDD2E0911603F091170358
:1020F000828D8A8F90917102981710F480937102EB
:102100002BE0829FC0011124B80188559D4FDF91BB
:10211000CF911F910F9180C2E0911603F0911703A8
:10212000828D8A8FDF91CF911F910F9108950F9328
:102130001F93CF93DF93EC01009711F480E02BC045
:102140008EA181508EA32A8D9DA12917B9F38111EB
:10215000F5CF8E010E5F1F4FC801C3D28DA18A8FAC
:102160004AE050E060E070E0481B510961097109E4
:102170004E875F87688B798B90917102981710F466
:10218000809371022BE0829FC0011124B801885511
:102190009D4F42D281E0DF91CF911F910F91089521
:1021A0008091160390911703892B39F0E091160363
:1021B000F091170386A18F5F86A3809116039091FB
:1021C000170308950F931F93CF93DF93EC0166DC01
:1021D00080911803811121C082E293E090931E0345
:1021E00080931D031092200310921F038BED95E046
:1021F00090931C0380931B0310921A0310921903EF
:10220000909325038093240389E193E09093230323
:102210008093220381E080931803209709F024968D
:10222000CE0101978A3D954008F053C0E0911D030F
:10223000F0911E03ADE1B3E0828193818C179D077D
:1022400028F023E0E931F20749F443C020813181CD
:1022500021153105B1F3DF01F901EECF0D911C918C
:1022600011970C5F1F4F208131812D933C938C1B64
:102270009D0B8930910500F1DF01AC0FBD1F139656
:102280009C938E931297D383C28312962D913C9187
:1022900013976DE173E0EB0188819981EC014A812C
:1022A0005B814217530710F4BC01F5CF11969C9344
:1022B0008E93EB01B983A883809110019091110155
:1022C00022813381821B930B909311018093100123
:1022D00002C000E010E0C0DCC801DF91CF911F9187
:1022E0000F910895CF93DF93009719F1EC01249794
:1022F000D5DB2A813B81EDE1F3E0A081B18112962B
:102300008D919C9113978217930710F4FD01F5CFDF
:10231000B983A883D183C08380911001909111016A
:10232000820F931F9093110180931001DF91CF9141
:1023300093CCDF91CF91089531E1FC013083319747
:1023400022E220833197A3E3A08331976083319702
:10235000708331971082319760E8608331971082E3
:10236000319762E06083319763E06083319764E086
:102370006083319765E06083319766E060833197D1
:1023800067E06083319768E06083319769E060833C
:10239000319760E1608331973083319732E1308348
:1023A000319733E13083319734E13083319735E130
:1023B0003083319736E13083319737E1308331977D
:1023C00038E13083319739E13083319730E230831F
:1023D000319731E2308331972083319723E2208394
:1023E0003197408331975083319726E2208331978C
:1023F00027E22083319728E22083319729E2208346
:10240000319720E32083319721E320838697089535
:1024100089E08093890083EC809388008BE080932F
:102420008100EFE6F0E0808182608083A091160356
:10243000B0911703CD91CDBFDD91DEBFFF91EF913C
:10244000DF91CF91BF91AF919F918F917F916F91CC
:102450005F914F913F912F911F910F91FF90EF90BE
:10246000DF90CF90BF90AF909F908F907F906F90B4
:102470005F904F903F902F901F900F900FBE0F9046
:10248000089581E008950F920FB6F8940F921F926D
:1024900011242F923F924F925F926F927F928F9270
:1024A0009F92AF92BF92CF92DF92EF92FF920F93E3
:1024B0001F932F933F934F935F936F937F938F93CC
:1024C0009F93AF93BF93CF93DF93EF93FF93A0912D
:1024D0001603B09117030DB60D920EB60D92C1DC26
:1024E000A0911603B0911703CD91CDBFDD91DEBF52
:1024F000FF91EF91DF91CF91BF91AF919F918F911C
:102500007F916F915F914F913F912F911F910F910B
:10251000FF90EF90DF90CF90BF90AF909F908F9003
:102520007F906F905F904F903F902F901F900F90F3
:102530000FBE0F9008950F920FB6F8940F921F924E
:1025400011242F923F924F925F926F927F928F92BF
:102550009F92AF92BF92CF92DF92EF92FF920F9332
:102560001F932F933F934F935F936F937F938F931B
:102570009F93AF93BF93CF93DF93EF93FF93A0917C
:102580001603B09117030DB60D920EB60D929ADA9E
:10259000811167DCA0911603B0911703CD91CDBFD7
:1025A000DD91DEBFFF91EF91DF91CF91BF91AF91B0
:1025B0009F918F917F916F915F914F913F912F915B
:1025C0001F910F91FF90EF90DF90CF90BF90AF9051
:1025D0009F908F907F906F905F904F903F902F9043
:1025E0001F900F900FBE0F900895A5DF1895FC0166
:1025F0000396928381834FEF5FEFBA014383548345
:102600006583768390878783928781871082089578
:10261000FC01138612860895CF93DF939C01FB0182
:10262000DC011196CD91DC911297D583C4838E8104
:102630009F81978386838E819F81DC0115967C9391
:102640006E9314977F836E8333872287F90180818D
:102650008F5F8083DF91CF910895EF92FF920F9368
:102660001F93CF93DF937C01FB01408151816281F5
:1026700073814F3F8FEF58076807780721F4E70110
:10268000A985BA8512C0D701139614968D919C9195
:102690001597EC01088119812A813B814017510768
:1026A0006207730710F0DC01F0CF14968D919C91B6
:1026B000159795838483EC01FF83EE83B783A6830C
:1026C0001596FC93EE931497F386E286F7018081CA
:1026D0008F5F8083DF91CF911F910F91FF90EF90DB
:1026E0000895CF93DF93FC01A285B3858481958102
:1026F00026813781EC013F832E83C681D7819D835C
:102700008C8311968D919C9112978E179F0721F4BF
:102710001296DC93CE931197138612868C9181507A
:102720008C93DF91CF910895AA1BBB1B51E107C089
:10273000AA1FBB1FA617B70710F0A61BB70B881F51
:10274000991F5A95A9F780959095BC01CD010895E0
:10275000A1E21A2EAA1BBB1BFD010DC0AA1FBB1FA5
:10276000EE1FFF1FA217B307E407F50720F0A21B17
:10277000B30BE40BF50B661F771F881F991F1A9484
:1027800069F760957095809590959B01AC01BD01AE
:10279000CF010895EE0FFF1F0590F491E02D0994ED
:1027A000FB01DC0102C001900D9241505040D8F76E
:0627B0000895F894FFCF2C
:1027B6000000FD08800001000000FF6704670401B7
:1027C600DB05000000000301B2028700A0009200B2
:1027D600E200000000006C020D0A006E616E0069E6
:1027E6006E66006F7666002E0044657369726564D6
:1027F6002053706565643A200044697374616E63A2
:10280600653A2000640042454E49474E0073616DAB
:10281600706C655F706F74656E74696F6D657465F5
:10282600720066756E6374696F6E5F657865637551
:10283600746F7200726563656976655F55415254BF
:102846000073656E645F554152540049444C45001F
:00000001FF
